{
	"FundMe.sol": {
		"FundMe": {
			"abi": [
				{
					"inputs": [],
					"stateMutability": "nonpayable",
					"type": "constructor"
				},
				{
					"inputs": [
						{
							"internalType": "address",
							"name": "funder",
							"type": "address"
						}
					],
					"name": "addressToAmountFunded",
					"outputs": [
						{
							"internalType": "uint256",
							"name": "amountFunded",
							"type": "uint256"
						}
					],
					"stateMutability": "view",
					"type": "function"
				},
				{
					"inputs": [],
					"name": "fund",
					"outputs": [],
					"stateMutability": "payable",
					"type": "function"
				},
				{
					"inputs": [
						{
							"internalType": "uint256",
							"name": "",
							"type": "uint256"
						}
					],
					"name": "funders",
					"outputs": [
						{
							"internalType": "address",
							"name": "",
							"type": "address"
						}
					],
					"stateMutability": "view",
					"type": "function"
				},
				{
					"inputs": [],
					"name": "minimumUSD",
					"outputs": [
						{
							"internalType": "uint256",
							"name": "",
							"type": "uint256"
						}
					],
					"stateMutability": "view",
					"type": "function"
				},
				{
					"inputs": [],
					"name": "owner",
					"outputs": [
						{
							"internalType": "address",
							"name": "",
							"type": "address"
						}
					],
					"stateMutability": "view",
					"type": "function"
				},
				{
					"inputs": [],
					"name": "withdraw",
					"outputs": [],
					"stateMutability": "nonpayable",
					"type": "function"
				},
				{
					"stateMutability": "payable",
					"type": "receive"
				}
			],
			"devdoc": {
				"kind": "dev",
				"methods": {},
				"version": 1
			},
			"evm": {
				"assembly": "    /* \"FundMe.sol\":318:3652  contract FundMe {... */\n  mstore(0x40, 0x80)\n    /* \"FundMe.sol\":412:416  5e18 */\n  0x4563918244f40000\n    /* \"FundMe.sol\":384:416  uint256 public minimumUSD = 5e18 */\n  0x00\n  sstore\n    /* \"FundMe.sol\":892:942  constructor(){... */\n  callvalue\n  dup1\n  iszero\n  tag_1\n  jumpi\n  0x00\n  dup1\n  revert\ntag_1:\n  pop\n    /* \"FundMe.sol\":924:934  msg.sender */\n  caller\n    /* \"FundMe.sol\":916:921  owner */\n  0x03\n  0x00\n    /* \"FundMe.sol\":916:934  owner = msg.sender */\n  0x0100\n  exp\n  dup2\n  sload\n  dup2\n  0xffffffffffffffffffffffffffffffffffffffff\n  mul\n  not\n  and\n  swap1\n  dup4\n  0xffffffffffffffffffffffffffffffffffffffff\n  and\n  mul\n  or\n  swap1\n  sstore\n  pop\n    /* \"FundMe.sol\":318:3652  contract FundMe {... */\n  dataSize(sub_0)\n  dup1\n  dataOffset(sub_0)\n  0x00\n  codecopy\n  0x00\n  return\nstop\n\nsub_0: assembly {\n        /* \"FundMe.sol\":318:3652  contract FundMe {... */\n      mstore(0x40, 0x80)\n      jumpi(tag_1, lt(calldatasize, 0x04))\n      shr(0xe0, calldataload(0x00))\n      dup1\n      0x3430a88c\n      eq\n      tag_3\n      jumpi\n      dup1\n      0x3ccfd60b\n      eq\n      tag_4\n      jumpi\n      dup1\n      0x3e47d6f3\n      eq\n      tag_5\n      jumpi\n      dup1\n      0x8da5cb5b\n      eq\n      tag_6\n      jumpi\n      dup1\n      0xb60d4288\n      eq\n      tag_7\n      jumpi\n      dup1\n      0xdc0d3dff\n      eq\n      tag_8\n      jumpi\n      jump(tag_2)\n    tag_1:\n      jumpi(tag_2, calldatasize)\n        /* \"FundMe.sol\":3618:3624  fund() */\n      tag_11\n        /* \"FundMe.sol\":3618:3622  fund */\n      tag_12\n        /* \"FundMe.sol\":3618:3624  fund() */\n      jump\t// in\n    tag_11:\n        /* \"FundMe.sol\":318:3652  contract FundMe {... */\n      stop\n    tag_2:\n      0x00\n      dup1\n      revert\n        /* \"FundMe.sol\":384:416  uint256 public minimumUSD = 5e18 */\n    tag_3:\n      callvalue\n      dup1\n      iszero\n      tag_13\n      jumpi\n      0x00\n      dup1\n      revert\n    tag_13:\n      pop\n      tag_14\n      tag_15\n      jump\t// in\n    tag_14:\n      mload(0x40)\n      tag_16\n      swap2\n      swap1\n      tag_17\n      jump\t// in\n    tag_16:\n      mload(0x40)\n      dup1\n      swap2\n      sub\n      swap1\n      return\n        /* \"FundMe.sol\":1658:3112  function withdraw() public onlyOwner{... */\n    tag_4:\n      callvalue\n      dup1\n      iszero\n      tag_18\n      jumpi\n      0x00\n      dup1\n      revert\n    tag_18:\n      pop\n      tag_19\n      tag_20\n      jump\t// in\n    tag_19:\n      stop\n        /* \"FundMe.sol\":607:683  mapping(address funder => uint256 amountFunded) public addressToAmountFunded */\n    tag_5:\n      callvalue\n      dup1\n      iszero\n      tag_21\n      jumpi\n      0x00\n      dup1\n      revert\n    tag_21:\n      pop\n      tag_22\n      0x04\n      dup1\n      calldatasize\n      sub\n      dup2\n      add\n      swap1\n      tag_23\n      swap2\n      swap1\n      tag_24\n      jump\t// in\n    tag_23:\n      tag_25\n      jump\t// in\n    tag_22:\n      mload(0x40)\n      tag_26\n      swap2\n      swap1\n      tag_17\n      jump\t// in\n    tag_26:\n      mload(0x40)\n      dup1\n      swap2\n      sub\n      swap1\n      return\n        /* \"FundMe.sol\":694:714  address public owner */\n    tag_6:\n      callvalue\n      dup1\n      iszero\n      tag_27\n      jumpi\n      0x00\n      dup1\n      revert\n    tag_27:\n      pop\n      tag_28\n      tag_29\n      jump\t// in\n    tag_28:\n      mload(0x40)\n      tag_30\n      swap2\n      swap1\n      tag_31\n      jump\t// in\n    tag_30:\n      mload(0x40)\n      dup1\n      swap2\n      sub\n      swap1\n      return\n        /* \"FundMe.sol\":950:1553  function fund() public payable {... */\n    tag_7:\n      tag_32\n      tag_12\n      jump\t// in\n    tag_32:\n      stop\n        /* \"FundMe.sol\":520:544  address[] public funders */\n    tag_8:\n      callvalue\n      dup1\n      iszero\n      tag_33\n      jumpi\n      0x00\n      dup1\n      revert\n    tag_33:\n      pop\n      tag_34\n      0x04\n      dup1\n      calldatasize\n      sub\n      dup2\n      add\n      swap1\n      tag_35\n      swap2\n      swap1\n      tag_36\n      jump\t// in\n    tag_35:\n      tag_37\n      jump\t// in\n    tag_34:\n      mload(0x40)\n      tag_38\n      swap2\n      swap1\n      tag_31\n      jump\t// in\n    tag_38:\n      mload(0x40)\n      dup1\n      swap2\n      sub\n      swap1\n      return\n        /* \"FundMe.sol\":950:1553  function fund() public payable {... */\n    tag_12:\n        /* \"FundMe.sol\":1232:1242  minimumUSD */\n      sload(0x00)\n        /* \"FundMe.sol\":1199:1228  msg.value.getConversionRate() */\n      tag_40\n        /* \"FundMe.sol\":1199:1208  msg.value */\n      callvalue\n        /* \"FundMe.sol\":1199:1226  msg.value.getConversionRate */\n      tag_41\n        /* \"FundMe.sol\":1199:1228  msg.value.getConversionRate() */\n      jump\t// in\n    tag_40:\n        /* \"FundMe.sol\":1199:1242  msg.value.getConversionRate() >= minimumUSD */\n      lt\n      iszero\n        /* \"FundMe.sol\":1191:1269  require(msg.value.getConversionRate() >= minimumUSD, \"Didn't send enough ETH\") */\n      tag_42\n      jumpi\n      mload(0x40)\n      0x08c379a000000000000000000000000000000000000000000000000000000000\n      dup2\n      mstore\n      0x04\n      add\n      tag_43\n      swap1\n      tag_44\n      jump\t// in\n    tag_43:\n      mload(0x40)\n      dup1\n      swap2\n      sub\n      swap1\n      revert\n    tag_42:\n        /* \"FundMe.sol\":1441:1448  funders */\n      0x01\n        /* \"FundMe.sol\":1454:1464  msg.sender */\n      caller\n        /* \"FundMe.sol\":1441:1465  funders.push(msg.sender) */\n      swap1\n      dup1\n      0x01\n      dup2\n      sload\n      add\n      dup1\n      dup3\n      sstore\n      dup1\n      swap2\n      pop\n      pop\n      0x01\n      swap1\n      sub\n      swap1\n      0x00\n      mstore\n      keccak256(0x00, 0x20)\n      add\n      0x00\n      swap1\n      swap2\n      swap1\n      swap2\n      swap1\n      swap2\n      0x0100\n      exp\n      dup2\n      sload\n      dup2\n      0xffffffffffffffffffffffffffffffffffffffff\n      mul\n      not\n      and\n      swap1\n      dup4\n      0xffffffffffffffffffffffffffffffffffffffff\n      and\n      mul\n      or\n      swap1\n      sstore\n      pop\n        /* \"FundMe.sol\":1536:1545  msg.value */\n      callvalue\n        /* \"FundMe.sol\":1499:1520  addressToAmountFunded */\n      0x02\n        /* \"FundMe.sol\":1499:1532  addressToAmountFunded[msg.sender] */\n      0x00\n        /* \"FundMe.sol\":1521:1531  msg.sender */\n      caller\n        /* \"FundMe.sol\":1499:1532  addressToAmountFunded[msg.sender] */\n      0xffffffffffffffffffffffffffffffffffffffff\n      and\n      0xffffffffffffffffffffffffffffffffffffffff\n      and\n      dup2\n      mstore\n      0x20\n      add\n      swap1\n      dup2\n      mstore\n      0x20\n      add\n      0x00\n      keccak256\n      0x00\n        /* \"FundMe.sol\":1499:1545  addressToAmountFunded[msg.sender] += msg.value */\n      dup3\n      dup3\n      sload\n      tag_46\n      swap2\n      swap1\n      tag_47\n      jump\t// in\n    tag_46:\n      swap3\n      pop\n      pop\n      dup2\n      swap1\n      sstore\n      pop\n        /* \"FundMe.sol\":950:1553  function fund() public payable {... */\n      jump\t// out\n        /* \"FundMe.sol\":384:416  uint256 public minimumUSD = 5e18 */\n    tag_15:\n      sload(0x00)\n      dup2\n      jump\t// out\n        /* \"FundMe.sol\":1658:3112  function withdraw() public onlyOwner{... */\n    tag_20:\n        /* \"FundMe.sol\":3340:3345  owner */\n      0x03\n      0x00\n      swap1\n      sload\n      swap1\n      0x0100\n      exp\n      swap1\n      div\n      0xffffffffffffffffffffffffffffffffffffffff\n      and\n        /* \"FundMe.sol\":3326:3345  msg.sender == owner */\n      0xffffffffffffffffffffffffffffffffffffffff\n      and\n        /* \"FundMe.sol\":3326:3336  msg.sender */\n      caller\n        /* \"FundMe.sol\":3326:3345  msg.sender == owner */\n      0xffffffffffffffffffffffffffffffffffffffff\n      and\n      eq\n        /* \"FundMe.sol\":3318:3369  require(msg.sender == owner, \"Sender is not owner\") */\n      tag_49\n      jumpi\n      mload(0x40)\n      0x08c379a000000000000000000000000000000000000000000000000000000000\n      dup2\n      mstore\n      0x04\n      add\n      tag_50\n      swap1\n      tag_51\n      jump\t// in\n    tag_50:\n      mload(0x40)\n      dup1\n      swap2\n      sub\n      swap1\n      revert\n    tag_49:\n        /* \"FundMe.sol\":1903:1922  uint256 funderIndex */\n      0x00\n        /* \"FundMe.sol\":1899:2084  for(uint256 funderIndex = 0; funderIndex < funders.length; funderIndex++){... */\n    tag_53:\n        /* \"FundMe.sol\":1942:1949  funders */\n      0x01\n        /* \"FundMe.sol\":1942:1956  funders.length */\n      dup1\n      sload\n      swap1\n      pop\n        /* \"FundMe.sol\":1928:1939  funderIndex */\n      dup2\n        /* \"FundMe.sol\":1928:1956  funderIndex < funders.length */\n      lt\n        /* \"FundMe.sol\":1899:2084  for(uint256 funderIndex = 0; funderIndex < funders.length; funderIndex++){... */\n      iszero\n      tag_54\n      jumpi\n        /* \"FundMe.sol\":1987:2001  address funder */\n      0x00\n        /* \"FundMe.sol\":2004:2011  funders */\n      0x01\n        /* \"FundMe.sol\":2012:2023  funderIndex */\n      dup3\n        /* \"FundMe.sol\":2004:2024  funders[funderIndex] */\n      dup2\n      sload\n      dup2\n      lt\n      tag_56\n      jumpi\n      tag_57\n      tag_58\n      jump\t// in\n    tag_57:\n    tag_56:\n      swap1\n      0x00\n      mstore\n      keccak256(0x00, 0x20)\n      add\n      0x00\n      swap1\n      sload\n      swap1\n      0x0100\n      exp\n      swap1\n      div\n      0xffffffffffffffffffffffffffffffffffffffff\n      and\n        /* \"FundMe.sol\":1987:2024  address funder = funders[funderIndex] */\n      swap1\n      pop\n        /* \"FundMe.sol\":2071:2072  0 */\n      0x00\n        /* \"FundMe.sol\":2039:2060  addressToAmountFunded */\n      0x02\n        /* \"FundMe.sol\":2039:2068  addressToAmountFunded[funder] */\n      0x00\n        /* \"FundMe.sol\":2061:2067  funder */\n      dup4\n        /* \"FundMe.sol\":2039:2068  addressToAmountFunded[funder] */\n      0xffffffffffffffffffffffffffffffffffffffff\n      and\n      0xffffffffffffffffffffffffffffffffffffffff\n      and\n      dup2\n      mstore\n      0x20\n      add\n      swap1\n      dup2\n      mstore\n      0x20\n      add\n      0x00\n      keccak256\n        /* \"FundMe.sol\":2039:2072  addressToAmountFunded[funder] = 0 */\n      dup2\n      swap1\n      sstore\n      pop\n        /* \"FundMe.sol\":1972:2084  {... */\n      pop\n        /* \"FundMe.sol\":1958:1971  funderIndex++ */\n      dup1\n      dup1\n      tag_60\n      swap1\n      tag_61\n      jump\t// in\n    tag_60:\n      swap2\n      pop\n      pop\n        /* \"FundMe.sol\":1899:2084  for(uint256 funderIndex = 0; funderIndex < funders.length; funderIndex++){... */\n      jump(tag_53)\n    tag_54:\n      pop\n        /* \"FundMe.sol\":2148:2149  0 */\n      0x00\n        /* \"FundMe.sol\":2134:2150  new address[](0) */\n      0xffffffffffffffff\n      dup2\n      gt\n      iszero\n      tag_62\n      jumpi\n      tag_63\n      tag_64\n      jump\t// in\n    tag_63:\n    tag_62:\n      mload(0x40)\n      swap1\n      dup1\n      dup3\n      mstore\n      dup1\n      0x20\n      mul\n      0x20\n      add\n      dup3\n      add\n      0x40\n      mstore\n      dup1\n      iszero\n      tag_65\n      jumpi\n      dup2\n      0x20\n      add\n      0x20\n      dup3\n      mul\n      dup1\n      calldatasize\n      dup4\n      calldatacopy\n      dup1\n      dup3\n      add\n      swap2\n      pop\n      pop\n      swap1\n      pop\n    tag_65:\n      pop\n        /* \"FundMe.sol\":2124:2131  funders */\n      0x01\n        /* \"FundMe.sol\":2124:2150  funders = new address[](0) */\n      swap1\n      dup1\n      mload\n      swap1\n      0x20\n      add\n      swap1\n      tag_66\n      swap3\n      swap2\n      swap1\n      tag_67\n      jump\t// in\n    tag_66:\n      pop\n        /* \"FundMe.sol\":2597:2607  msg.sender */\n      caller\n        /* \"FundMe.sol\":2589:2617  payable(msg.sender).transfer */\n      0xffffffffffffffffffffffffffffffffffffffff\n      and\n        /* \"FundMe.sol\":2589:2640  payable(msg.sender).transfer(address(this).balance) */\n      0x08fc\n        /* \"FundMe.sol\":2618:2639  address(this).balance */\n      selfbalance\n        /* \"FundMe.sol\":2589:2640  payable(msg.sender).transfer(address(this).balance) */\n      swap1\n      dup2\n      iszero\n      mul\n      swap1\n      mload(0x40)\n      0x00\n      mload(0x40)\n      dup1\n      dup4\n      sub\n      dup2\n      dup6\n      dup9\n      dup9\n      call\n      swap4\n      pop\n      pop\n      pop\n      pop\n      iszero\n      dup1\n      iszero\n      tag_69\n      jumpi\n      returndatasize\n      0x00\n      dup1\n      returndatacopy\n      revert(0x00, returndatasize)\n    tag_69:\n      pop\n        /* \"FundMe.sol\":2738:2754  bool sendSuccess */\n      0x00\n        /* \"FundMe.sol\":2765:2775  msg.sender */\n      caller\n        /* \"FundMe.sol\":2757:2781  payable(msg.sender).send */\n      0xffffffffffffffffffffffffffffffffffffffff\n      and\n        /* \"FundMe.sol\":2757:2804  payable(msg.sender).send(address(this).balance) */\n      0x08fc\n        /* \"FundMe.sol\":2782:2803  address(this).balance */\n      selfbalance\n        /* \"FundMe.sol\":2757:2804  payable(msg.sender).send(address(this).balance) */\n      swap1\n      dup2\n      iszero\n      mul\n      swap1\n      mload(0x40)\n      0x00\n      mload(0x40)\n      dup1\n      dup4\n      sub\n      dup2\n      dup6\n      dup9\n      dup9\n      call\n      swap4\n      pop\n      pop\n      pop\n      pop\n        /* \"FundMe.sol\":2738:2804  bool sendSuccess = payable(msg.sender).send(address(this).balance) */\n      swap1\n      pop\n        /* \"FundMe.sol\":2823:2834  sendSuccess */\n      dup1\n        /* \"FundMe.sol\":2815:2850  require(sendSuccess, \"Send failed\") */\n      tag_71\n      jumpi\n      mload(0x40)\n      0x08c379a000000000000000000000000000000000000000000000000000000000\n      dup2\n      mstore\n      0x04\n      add\n      tag_72\n      swap1\n      tag_73\n      jump\t// in\n    tag_72:\n      mload(0x40)\n      dup1\n      swap2\n      sub\n      swap1\n      revert\n    tag_71:\n        /* \"FundMe.sol\":2979:2995  bool callSuccess */\n      0x00\n        /* \"FundMe.sol\":3008:3018  msg.sender */\n      caller\n        /* \"FundMe.sol\":3000:3024  payable(msg.sender).call */\n      0xffffffffffffffffffffffffffffffffffffffff\n      and\n        /* \"FundMe.sol\":3032:3053  address(this).balance */\n      selfbalance\n        /* \"FundMe.sol\":3000:3058  payable(msg.sender).call{value: address(this).balance}(\"\") */\n      mload(0x40)\n      tag_74\n      swap1\n      tag_75\n      jump\t// in\n    tag_74:\n      0x00\n      mload(0x40)\n      dup1\n      dup4\n      sub\n      dup2\n      dup6\n      dup8\n      gas\n      call\n      swap3\n      pop\n      pop\n      pop\n      returndatasize\n      dup1\n      0x00\n      dup2\n      eq\n      tag_78\n      jumpi\n      mload(0x40)\n      swap2\n      pop\n      and(add(returndatasize, 0x3f), not(0x1f))\n      dup3\n      add\n      0x40\n      mstore\n      returndatasize\n      dup3\n      mstore\n      returndatasize\n      0x00\n      0x20\n      dup5\n      add\n      returndatacopy\n      jump(tag_77)\n    tag_78:\n      0x60\n      swap2\n      pop\n    tag_77:\n      pop\n        /* \"FundMe.sol\":2978:3058  (bool callSuccess, )= payable(msg.sender).call{value: address(this).balance}(\"\") */\n      pop\n      swap1\n      pop\n        /* \"FundMe.sol\":3077:3088  callSuccess */\n      dup1\n        /* \"FundMe.sol\":3069:3104  require(callSuccess, \"call failed\") */\n      tag_79\n      jumpi\n      mload(0x40)\n      0x08c379a000000000000000000000000000000000000000000000000000000000\n      dup2\n      mstore\n      0x04\n      add\n      tag_80\n      swap1\n      tag_81\n      jump\t// in\n    tag_80:\n      mload(0x40)\n      dup1\n      swap2\n      sub\n      swap1\n      revert\n    tag_79:\n        /* \"FundMe.sol\":1694:3112  {... */\n      pop\n      pop\n        /* \"FundMe.sol\":1658:3112  function withdraw() public onlyOwner{... */\n      jump\t// out\n        /* \"FundMe.sol\":607:683  mapping(address funder => uint256 amountFunded) public addressToAmountFunded */\n    tag_25:\n      mstore(0x20, 0x02)\n      dup1\n      0x00\n      mstore\n      keccak256(0x00, 0x40)\n      0x00\n      swap2\n      pop\n      swap1\n      pop\n      sload\n      dup2\n      jump\t// out\n        /* \"FundMe.sol\":694:714  address public owner */\n    tag_29:\n      0x03\n      0x00\n      swap1\n      sload\n      swap1\n      0x0100\n      exp\n      swap1\n      div\n      0xffffffffffffffffffffffffffffffffffffffff\n      and\n      dup2\n      jump\t// out\n        /* \"FundMe.sol\":520:544  address[] public funders */\n    tag_37:\n      0x01\n      dup2\n      dup2\n      sload\n      dup2\n      lt\n      tag_82\n      jumpi\n      0x00\n      dup1\n      revert\n    tag_82:\n      swap1\n      0x00\n      mstore\n      keccak256(0x00, 0x20)\n      add\n      0x00\n      swap2\n      pop\n      sload\n      swap1\n      0x0100\n      exp\n      swap1\n      div\n      0xffffffffffffffffffffffffffffffffffffffff\n      and\n      dup2\n      jump\t// out\n        /* \"PriceConverter.sol\":734:1109  function getConversionRate(uint256 ethAmount) internal view returns(uint256) {... */\n    tag_41:\n        /* \"PriceConverter.sol\":802:809  uint256 */\n      0x00\n        /* \"PriceConverter.sol\":878:894  uint256 ethPrice */\n      dup1\n        /* \"PriceConverter.sol\":897:907  getPrice() */\n      tag_85\n        /* \"PriceConverter.sol\":897:905  getPrice */\n      tag_86\n        /* \"PriceConverter.sol\":897:907  getPrice() */\n      jump\t// in\n    tag_85:\n        /* \"PriceConverter.sol\":878:907  uint256 ethPrice = getPrice() */\n      swap1\n      pop\n        /* \"PriceConverter.sol\":1013:1035  uint256 ethAmountInUsd */\n      0x00\n        /* \"PriceConverter.sol\":1063:1067  1e18 */\n      0x0de0b6b3a7640000\n        /* \"PriceConverter.sol\":1050:1059  ethAmount */\n      dup5\n        /* \"PriceConverter.sol\":1039:1047  ethPrice */\n      dup4\n        /* \"PriceConverter.sol\":1039:1059  ethPrice * ethAmount */\n      tag_87\n      swap2\n      swap1\n      tag_88\n      jump\t// in\n    tag_87:\n        /* \"PriceConverter.sol\":1038:1067  (ethPrice * ethAmount) / 1e18 */\n      tag_89\n      swap2\n      swap1\n      tag_90\n      jump\t// in\n    tag_89:\n        /* \"PriceConverter.sol\":1013:1067  uint256 ethAmountInUsd = (ethPrice * ethAmount) / 1e18 */\n      swap1\n      pop\n        /* \"PriceConverter.sol\":1085:1099  ethAmountInUsd */\n      dup1\n        /* \"PriceConverter.sol\":1078:1099  return ethAmountInUsd */\n      swap3\n      pop\n      pop\n      pop\n        /* \"PriceConverter.sol\":734:1109  function getConversionRate(uint256 ethAmount) internal view returns(uint256) {... */\n      swap2\n      swap1\n      pop\n      jump\t// out\n        /* \"PriceConverter.sol\":205:726  function getPrice() internal view returns (uint256){... */\n    tag_86:\n        /* \"PriceConverter.sol\":248:255  uint256 */\n      0x00\n        /* \"PriceConverter.sol\":303:334  AggregatorV3Interface priceFeed */\n      dup1\n        /* \"PriceConverter.sol\":359:401  0x694AA1769357215DE4FAC081bf1f309aDC325306 */\n      0x694aa1769357215de4fac081bf1f309adc325306\n        /* \"PriceConverter.sol\":303:402  AggregatorV3Interface priceFeed = AggregatorV3Interface(0x694AA1769357215DE4FAC081bf1f309aDC325306) */\n      swap1\n      pop\n        /* \"PriceConverter.sol\":415:427  int256 price */\n      0x00\n        /* \"PriceConverter.sol\":434:443  priceFeed */\n      dup2\n        /* \"PriceConverter.sol\":434:459  priceFeed.latestRoundData */\n      0xffffffffffffffffffffffffffffffffffffffff\n      and\n      0xfeaf968c\n        /* \"PriceConverter.sol\":434:461  priceFeed.latestRoundData() */\n      mload(0x40)\n      dup2\n      0xffffffff\n      and\n      0xe0\n      shl\n      dup2\n      mstore\n      0x04\n      add\n      0xa0\n      mload(0x40)\n      dup1\n      dup4\n      sub\n      dup2\n      dup7\n      gas\n      staticcall\n      iszero\n      dup1\n      iszero\n      tag_93\n      jumpi\n      returndatasize\n      0x00\n      dup1\n      returndatacopy\n      revert(0x00, returndatasize)\n    tag_93:\n      pop\n      pop\n      pop\n      pop\n      mload(0x40)\n      returndatasize\n      not(0x1f)\n      0x1f\n      dup3\n      add\n      and\n      dup3\n      add\n      dup1\n      0x40\n      mstore\n      pop\n      dup2\n      add\n      swap1\n      tag_94\n      swap2\n      swap1\n      tag_95\n      jump\t// in\n    tag_94:\n        /* \"PriceConverter.sol\":413:461  (,int256 price,,,) = priceFeed.latestRoundData() */\n      pop\n      pop\n      pop\n      swap2\n      pop\n      pop\n        /* \"PriceConverter.sol\":562:566  1e10 */\n      0x02540be400\n        /* \"PriceConverter.sol\":554:559  price */\n      dup2\n        /* \"PriceConverter.sol\":554:566  price * 1e10 */\n      tag_96\n      swap2\n      swap1\n      tag_97\n      jump\t// in\n    tag_96:\n        /* \"PriceConverter.sol\":539:567  return uint256(price * 1e10) */\n      swap3\n      pop\n      pop\n      pop\n        /* \"PriceConverter.sol\":205:726  function getPrice() internal view returns (uint256){... */\n      swap1\n      jump\t// out\n    tag_67:\n      dup3\n      dup1\n      sload\n      dup3\n      dup3\n      sstore\n      swap1\n      0x00\n      mstore\n      keccak256(0x00, 0x20)\n      swap1\n      dup2\n      add\n      swap3\n      dup3\n      iszero\n      tag_98\n      jumpi\n      swap2\n      0x20\n      mul\n      dup3\n      add\n    tag_99:\n      dup3\n      dup2\n      gt\n      iszero\n      tag_100\n      jumpi\n      dup3\n      mload\n      dup3\n      exp(0x0100, 0x00)\n      dup2\n      sload\n      dup2\n      0xffffffffffffffffffffffffffffffffffffffff\n      mul\n      not\n      and\n      swap1\n      dup4\n      0xffffffffffffffffffffffffffffffffffffffff\n      and\n      mul\n      or\n      swap1\n      sstore\n      pop\n      swap2\n      0x20\n      add\n      swap2\n      swap1\n      0x01\n      add\n      swap1\n      jump(tag_99)\n    tag_100:\n    tag_98:\n      pop\n      swap1\n      pop\n      tag_101\n      swap2\n      swap1\n      tag_102\n      jump\t// in\n    tag_101:\n      pop\n      swap1\n      jump\t// out\n    tag_102:\n    tag_103:\n      dup1\n      dup3\n      gt\n      iszero\n      tag_104\n      jumpi\n      0x00\n      dup2\n      0x00\n      swap1\n      sstore\n      pop\n      0x01\n      add\n      jump(tag_103)\n    tag_104:\n      pop\n      swap1\n      jump\t// out\n        /* \"#utility.yul\":7:84   */\n    tag_105:\n        /* \"#utility.yul\":44:51   */\n      0x00\n        /* \"#utility.yul\":73:78   */\n      dup2\n        /* \"#utility.yul\":62:78   */\n      swap1\n      pop\n        /* \"#utility.yul\":7:84   */\n      swap2\n      swap1\n      pop\n      jump\t// out\n        /* \"#utility.yul\":90:208   */\n    tag_106:\n        /* \"#utility.yul\":177:201   */\n      tag_141\n        /* \"#utility.yul\":195:200   */\n      dup2\n        /* \"#utility.yul\":177:201   */\n      tag_105\n      jump\t// in\n    tag_141:\n        /* \"#utility.yul\":172:175   */\n      dup3\n        /* \"#utility.yul\":165:202   */\n      mstore\n        /* \"#utility.yul\":90:208   */\n      pop\n      pop\n      jump\t// out\n        /* \"#utility.yul\":214:436   */\n    tag_17:\n        /* \"#utility.yul\":307:311   */\n      0x00\n        /* \"#utility.yul\":345:347   */\n      0x20\n        /* \"#utility.yul\":334:343   */\n      dup3\n        /* \"#utility.yul\":330:348   */\n      add\n        /* \"#utility.yul\":322:348   */\n      swap1\n      pop\n        /* \"#utility.yul\":358:429   */\n      tag_143\n        /* \"#utility.yul\":426:427   */\n      0x00\n        /* \"#utility.yul\":415:424   */\n      dup4\n        /* \"#utility.yul\":411:428   */\n      add\n        /* \"#utility.yul\":402:408   */\n      dup5\n        /* \"#utility.yul\":358:429   */\n      tag_106\n      jump\t// in\n    tag_143:\n        /* \"#utility.yul\":214:436   */\n      swap3\n      swap2\n      pop\n      pop\n      jump\t// out\n        /* \"#utility.yul\":523:640   */\n    tag_108:\n        /* \"#utility.yul\":632:633   */\n      0x00\n        /* \"#utility.yul\":629:630   */\n      dup1\n        /* \"#utility.yul\":622:634   */\n      revert\n        /* \"#utility.yul\":769:895   */\n    tag_110:\n        /* \"#utility.yul\":806:813   */\n      0x00\n        /* \"#utility.yul\":846:888   */\n      0xffffffffffffffffffffffffffffffffffffffff\n        /* \"#utility.yul\":839:844   */\n      dup3\n        /* \"#utility.yul\":835:889   */\n      and\n        /* \"#utility.yul\":824:889   */\n      swap1\n      pop\n        /* \"#utility.yul\":769:895   */\n      swap2\n      swap1\n      pop\n      jump\t// out\n        /* \"#utility.yul\":901:997   */\n    tag_111:\n        /* \"#utility.yul\":938:945   */\n      0x00\n        /* \"#utility.yul\":967:991   */\n      tag_149\n        /* \"#utility.yul\":985:990   */\n      dup3\n        /* \"#utility.yul\":967:991   */\n      tag_110\n      jump\t// in\n    tag_149:\n        /* \"#utility.yul\":956:991   */\n      swap1\n      pop\n        /* \"#utility.yul\":901:997   */\n      swap2\n      swap1\n      pop\n      jump\t// out\n        /* \"#utility.yul\":1003:1125   */\n    tag_112:\n        /* \"#utility.yul\":1076:1100   */\n      tag_151\n        /* \"#utility.yul\":1094:1099   */\n      dup2\n        /* \"#utility.yul\":1076:1100   */\n      tag_111\n      jump\t// in\n    tag_151:\n        /* \"#utility.yul\":1069:1074   */\n      dup2\n        /* \"#utility.yul\":1066:1101   */\n      eq\n        /* \"#utility.yul\":1056:1119   */\n      tag_152\n      jumpi\n        /* \"#utility.yul\":1115:1116   */\n      0x00\n        /* \"#utility.yul\":1112:1113   */\n      dup1\n        /* \"#utility.yul\":1105:1117   */\n      revert\n        /* \"#utility.yul\":1056:1119   */\n    tag_152:\n        /* \"#utility.yul\":1003:1125   */\n      pop\n      jump\t// out\n        /* \"#utility.yul\":1131:1270   */\n    tag_113:\n        /* \"#utility.yul\":1177:1182   */\n      0x00\n        /* \"#utility.yul\":1215:1221   */\n      dup2\n        /* \"#utility.yul\":1202:1222   */\n      calldataload\n        /* \"#utility.yul\":1193:1222   */\n      swap1\n      pop\n        /* \"#utility.yul\":1231:1264   */\n      tag_154\n        /* \"#utility.yul\":1258:1263   */\n      dup2\n        /* \"#utility.yul\":1231:1264   */\n      tag_112\n      jump\t// in\n    tag_154:\n        /* \"#utility.yul\":1131:1270   */\n      swap3\n      swap2\n      pop\n      pop\n      jump\t// out\n        /* \"#utility.yul\":1276:1605   */\n    tag_24:\n        /* \"#utility.yul\":1335:1341   */\n      0x00\n        /* \"#utility.yul\":1384:1386   */\n      0x20\n        /* \"#utility.yul\":1372:1381   */\n      dup3\n        /* \"#utility.yul\":1363:1370   */\n      dup5\n        /* \"#utility.yul\":1359:1382   */\n      sub\n        /* \"#utility.yul\":1355:1387   */\n      slt\n        /* \"#utility.yul\":1352:1471   */\n      iszero\n      tag_156\n      jumpi\n        /* \"#utility.yul\":1390:1469   */\n      tag_157\n      tag_108\n      jump\t// in\n    tag_157:\n        /* \"#utility.yul\":1352:1471   */\n    tag_156:\n        /* \"#utility.yul\":1510:1511   */\n      0x00\n        /* \"#utility.yul\":1535:1588   */\n      tag_158\n        /* \"#utility.yul\":1580:1587   */\n      dup5\n        /* \"#utility.yul\":1571:1577   */\n      dup3\n        /* \"#utility.yul\":1560:1569   */\n      dup6\n        /* \"#utility.yul\":1556:1578   */\n      add\n        /* \"#utility.yul\":1535:1588   */\n      tag_113\n      jump\t// in\n    tag_158:\n        /* \"#utility.yul\":1525:1588   */\n      swap2\n      pop\n        /* \"#utility.yul\":1481:1598   */\n      pop\n        /* \"#utility.yul\":1276:1605   */\n      swap3\n      swap2\n      pop\n      pop\n      jump\t// out\n        /* \"#utility.yul\":1611:1729   */\n    tag_114:\n        /* \"#utility.yul\":1698:1722   */\n      tag_160\n        /* \"#utility.yul\":1716:1721   */\n      dup2\n        /* \"#utility.yul\":1698:1722   */\n      tag_111\n      jump\t// in\n    tag_160:\n        /* \"#utility.yul\":1693:1696   */\n      dup3\n        /* \"#utility.yul\":1686:1723   */\n      mstore\n        /* \"#utility.yul\":1611:1729   */\n      pop\n      pop\n      jump\t// out\n        /* \"#utility.yul\":1735:1957   */\n    tag_31:\n        /* \"#utility.yul\":1828:1832   */\n      0x00\n        /* \"#utility.yul\":1866:1868   */\n      0x20\n        /* \"#utility.yul\":1855:1864   */\n      dup3\n        /* \"#utility.yul\":1851:1869   */\n      add\n        /* \"#utility.yul\":1843:1869   */\n      swap1\n      pop\n        /* \"#utility.yul\":1879:1950   */\n      tag_162\n        /* \"#utility.yul\":1947:1948   */\n      0x00\n        /* \"#utility.yul\":1936:1945   */\n      dup4\n        /* \"#utility.yul\":1932:1949   */\n      add\n        /* \"#utility.yul\":1923:1929   */\n      dup5\n        /* \"#utility.yul\":1879:1950   */\n      tag_114\n      jump\t// in\n    tag_162:\n        /* \"#utility.yul\":1735:1957   */\n      swap3\n      swap2\n      pop\n      pop\n      jump\t// out\n        /* \"#utility.yul\":1963:2085   */\n    tag_115:\n        /* \"#utility.yul\":2036:2060   */\n      tag_164\n        /* \"#utility.yul\":2054:2059   */\n      dup2\n        /* \"#utility.yul\":2036:2060   */\n      tag_105\n      jump\t// in\n    tag_164:\n        /* \"#utility.yul\":2029:2034   */\n      dup2\n        /* \"#utility.yul\":2026:2061   */\n      eq\n        /* \"#utility.yul\":2016:2079   */\n      tag_165\n      jumpi\n        /* \"#utility.yul\":2075:2076   */\n      0x00\n        /* \"#utility.yul\":2072:2073   */\n      dup1\n        /* \"#utility.yul\":2065:2077   */\n      revert\n        /* \"#utility.yul\":2016:2079   */\n    tag_165:\n        /* \"#utility.yul\":1963:2085   */\n      pop\n      jump\t// out\n        /* \"#utility.yul\":2091:2230   */\n    tag_116:\n        /* \"#utility.yul\":2137:2142   */\n      0x00\n        /* \"#utility.yul\":2175:2181   */\n      dup2\n        /* \"#utility.yul\":2162:2182   */\n      calldataload\n        /* \"#utility.yul\":2153:2182   */\n      swap1\n      pop\n        /* \"#utility.yul\":2191:2224   */\n      tag_167\n        /* \"#utility.yul\":2218:2223   */\n      dup2\n        /* \"#utility.yul\":2191:2224   */\n      tag_115\n      jump\t// in\n    tag_167:\n        /* \"#utility.yul\":2091:2230   */\n      swap3\n      swap2\n      pop\n      pop\n      jump\t// out\n        /* \"#utility.yul\":2236:2565   */\n    tag_36:\n        /* \"#utility.yul\":2295:2301   */\n      0x00\n        /* \"#utility.yul\":2344:2346   */\n      0x20\n        /* \"#utility.yul\":2332:2341   */\n      dup3\n        /* \"#utility.yul\":2323:2330   */\n      dup5\n        /* \"#utility.yul\":2319:2342   */\n      sub\n        /* \"#utility.yul\":2315:2347   */\n      slt\n        /* \"#utility.yul\":2312:2431   */\n      iszero\n      tag_169\n      jumpi\n        /* \"#utility.yul\":2350:2429   */\n      tag_170\n      tag_108\n      jump\t// in\n    tag_170:\n        /* \"#utility.yul\":2312:2431   */\n    tag_169:\n        /* \"#utility.yul\":2470:2471   */\n      0x00\n        /* \"#utility.yul\":2495:2548   */\n      tag_171\n        /* \"#utility.yul\":2540:2547   */\n      dup5\n        /* \"#utility.yul\":2531:2537   */\n      dup3\n        /* \"#utility.yul\":2520:2529   */\n      dup6\n        /* \"#utility.yul\":2516:2538   */\n      add\n        /* \"#utility.yul\":2495:2548   */\n      tag_116\n      jump\t// in\n    tag_171:\n        /* \"#utility.yul\":2485:2548   */\n      swap2\n      pop\n        /* \"#utility.yul\":2441:2558   */\n      pop\n        /* \"#utility.yul\":2236:2565   */\n      swap3\n      swap2\n      pop\n      pop\n      jump\t// out\n        /* \"#utility.yul\":2571:2740   */\n    tag_117:\n        /* \"#utility.yul\":2655:2666   */\n      0x00\n        /* \"#utility.yul\":2689:2695   */\n      dup3\n        /* \"#utility.yul\":2684:2687   */\n      dup3\n        /* \"#utility.yul\":2677:2696   */\n      mstore\n        /* \"#utility.yul\":2729:2733   */\n      0x20\n        /* \"#utility.yul\":2724:2727   */\n      dup3\n        /* \"#utility.yul\":2720:2734   */\n      add\n        /* \"#utility.yul\":2705:2734   */\n      swap1\n      pop\n        /* \"#utility.yul\":2571:2740   */\n      swap3\n      swap2\n      pop\n      pop\n      jump\t// out\n        /* \"#utility.yul\":2746:2918   */\n    tag_118:\n        /* \"#utility.yul\":2886:2910   */\n      0x4469646e27742073656e6420656e6f7567682045544800000000000000000000\n        /* \"#utility.yul\":2882:2883   */\n      0x00\n        /* \"#utility.yul\":2874:2880   */\n      dup3\n        /* \"#utility.yul\":2870:2884   */\n      add\n        /* \"#utility.yul\":2863:2911   */\n      mstore\n        /* \"#utility.yul\":2746:2918   */\n      pop\n      jump\t// out\n        /* \"#utility.yul\":2924:3290   */\n    tag_119:\n        /* \"#utility.yul\":3066:3069   */\n      0x00\n        /* \"#utility.yul\":3087:3154   */\n      tag_175\n        /* \"#utility.yul\":3151:3153   */\n      0x16\n        /* \"#utility.yul\":3146:3149   */\n      dup4\n        /* \"#utility.yul\":3087:3154   */\n      tag_117\n      jump\t// in\n    tag_175:\n        /* \"#utility.yul\":3080:3154   */\n      swap2\n      pop\n        /* \"#utility.yul\":3163:3256   */\n      tag_176\n        /* \"#utility.yul\":3252:3255   */\n      dup3\n        /* \"#utility.yul\":3163:3256   */\n      tag_118\n      jump\t// in\n    tag_176:\n        /* \"#utility.yul\":3281:3283   */\n      0x20\n        /* \"#utility.yul\":3276:3279   */\n      dup3\n        /* \"#utility.yul\":3272:3284   */\n      add\n        /* \"#utility.yul\":3265:3284   */\n      swap1\n      pop\n        /* \"#utility.yul\":2924:3290   */\n      swap2\n      swap1\n      pop\n      jump\t// out\n        /* \"#utility.yul\":3296:3715   */\n    tag_44:\n        /* \"#utility.yul\":3462:3466   */\n      0x00\n        /* \"#utility.yul\":3500:3502   */\n      0x20\n        /* \"#utility.yul\":3489:3498   */\n      dup3\n        /* \"#utility.yul\":3485:3503   */\n      add\n        /* \"#utility.yul\":3477:3503   */\n      swap1\n      pop\n        /* \"#utility.yul\":3549:3558   */\n      dup2\n        /* \"#utility.yul\":3543:3547   */\n      dup2\n        /* \"#utility.yul\":3539:3559   */\n      sub\n        /* \"#utility.yul\":3535:3536   */\n      0x00\n        /* \"#utility.yul\":3524:3533   */\n      dup4\n        /* \"#utility.yul\":3520:3537   */\n      add\n        /* \"#utility.yul\":3513:3560   */\n      mstore\n        /* \"#utility.yul\":3577:3708   */\n      tag_178\n        /* \"#utility.yul\":3703:3707   */\n      dup2\n        /* \"#utility.yul\":3577:3708   */\n      tag_119\n      jump\t// in\n    tag_178:\n        /* \"#utility.yul\":3569:3708   */\n      swap1\n      pop\n        /* \"#utility.yul\":3296:3715   */\n      swap2\n      swap1\n      pop\n      jump\t// out\n        /* \"#utility.yul\":3721:3901   */\n    tag_120:\n        /* \"#utility.yul\":3769:3846   */\n      0x4e487b7100000000000000000000000000000000000000000000000000000000\n        /* \"#utility.yul\":3766:3767   */\n      0x00\n        /* \"#utility.yul\":3759:3847   */\n      mstore\n        /* \"#utility.yul\":3866:3870   */\n      0x11\n        /* \"#utility.yul\":3863:3864   */\n      0x04\n        /* \"#utility.yul\":3856:3871   */\n      mstore\n        /* \"#utility.yul\":3890:3894   */\n      0x24\n        /* \"#utility.yul\":3887:3888   */\n      0x00\n        /* \"#utility.yul\":3880:3895   */\n      revert\n        /* \"#utility.yul\":3907:4098   */\n    tag_47:\n        /* \"#utility.yul\":3947:3950   */\n      0x00\n        /* \"#utility.yul\":3966:3986   */\n      tag_181\n        /* \"#utility.yul\":3984:3985   */\n      dup3\n        /* \"#utility.yul\":3966:3986   */\n      tag_105\n      jump\t// in\n    tag_181:\n        /* \"#utility.yul\":3961:3986   */\n      swap2\n      pop\n        /* \"#utility.yul\":4000:4020   */\n      tag_182\n        /* \"#utility.yul\":4018:4019   */\n      dup4\n        /* \"#utility.yul\":4000:4020   */\n      tag_105\n      jump\t// in\n    tag_182:\n        /* \"#utility.yul\":3995:4020   */\n      swap3\n      pop\n        /* \"#utility.yul\":4043:4044   */\n      dup3\n        /* \"#utility.yul\":4040:4041   */\n      dup3\n        /* \"#utility.yul\":4036:4045   */\n      add\n        /* \"#utility.yul\":4029:4045   */\n      swap1\n      pop\n        /* \"#utility.yul\":4064:4067   */\n      dup1\n        /* \"#utility.yul\":4061:4062   */\n      dup3\n        /* \"#utility.yul\":4058:4068   */\n      gt\n        /* \"#utility.yul\":4055:4091   */\n      iszero\n      tag_183\n      jumpi\n        /* \"#utility.yul\":4071:4089   */\n      tag_184\n      tag_120\n      jump\t// in\n    tag_184:\n        /* \"#utility.yul\":4055:4091   */\n    tag_183:\n        /* \"#utility.yul\":3907:4098   */\n      swap3\n      swap2\n      pop\n      pop\n      jump\t// out\n        /* \"#utility.yul\":4104:4273   */\n    tag_121:\n        /* \"#utility.yul\":4244:4265   */\n      0x53656e646572206973206e6f74206f776e657200000000000000000000000000\n        /* \"#utility.yul\":4240:4241   */\n      0x00\n        /* \"#utility.yul\":4232:4238   */\n      dup3\n        /* \"#utility.yul\":4228:4242   */\n      add\n        /* \"#utility.yul\":4221:4266   */\n      mstore\n        /* \"#utility.yul\":4104:4273   */\n      pop\n      jump\t// out\n        /* \"#utility.yul\":4279:4645   */\n    tag_122:\n        /* \"#utility.yul\":4421:4424   */\n      0x00\n        /* \"#utility.yul\":4442:4509   */\n      tag_187\n        /* \"#utility.yul\":4506:4508   */\n      0x13\n        /* \"#utility.yul\":4501:4504   */\n      dup4\n        /* \"#utility.yul\":4442:4509   */\n      tag_117\n      jump\t// in\n    tag_187:\n        /* \"#utility.yul\":4435:4509   */\n      swap2\n      pop\n        /* \"#utility.yul\":4518:4611   */\n      tag_188\n        /* \"#utility.yul\":4607:4610   */\n      dup3\n        /* \"#utility.yul\":4518:4611   */\n      tag_121\n      jump\t// in\n    tag_188:\n        /* \"#utility.yul\":4636:4638   */\n      0x20\n        /* \"#utility.yul\":4631:4634   */\n      dup3\n        /* \"#utility.yul\":4627:4639   */\n      add\n        /* \"#utility.yul\":4620:4639   */\n      swap1\n      pop\n        /* \"#utility.yul\":4279:4645   */\n      swap2\n      swap1\n      pop\n      jump\t// out\n        /* \"#utility.yul\":4651:5070   */\n    tag_51:\n        /* \"#utility.yul\":4817:4821   */\n      0x00\n        /* \"#utility.yul\":4855:4857   */\n      0x20\n        /* \"#utility.yul\":4844:4853   */\n      dup3\n        /* \"#utility.yul\":4840:4858   */\n      add\n        /* \"#utility.yul\":4832:4858   */\n      swap1\n      pop\n        /* \"#utility.yul\":4904:4913   */\n      dup2\n        /* \"#utility.yul\":4898:4902   */\n      dup2\n        /* \"#utility.yul\":4894:4914   */\n      sub\n        /* \"#utility.yul\":4890:4891   */\n      0x00\n        /* \"#utility.yul\":4879:4888   */\n      dup4\n        /* \"#utility.yul\":4875:4892   */\n      add\n        /* \"#utility.yul\":4868:4915   */\n      mstore\n        /* \"#utility.yul\":4932:5063   */\n      tag_190\n        /* \"#utility.yul\":5058:5062   */\n      dup2\n        /* \"#utility.yul\":4932:5063   */\n      tag_122\n      jump\t// in\n    tag_190:\n        /* \"#utility.yul\":4924:5063   */\n      swap1\n      pop\n        /* \"#utility.yul\":4651:5070   */\n      swap2\n      swap1\n      pop\n      jump\t// out\n        /* \"#utility.yul\":5076:5256   */\n    tag_58:\n        /* \"#utility.yul\":5124:5201   */\n      0x4e487b7100000000000000000000000000000000000000000000000000000000\n        /* \"#utility.yul\":5121:5122   */\n      0x00\n        /* \"#utility.yul\":5114:5202   */\n      mstore\n        /* \"#utility.yul\":5221:5225   */\n      0x32\n        /* \"#utility.yul\":5218:5219   */\n      0x04\n        /* \"#utility.yul\":5211:5226   */\n      mstore\n        /* \"#utility.yul\":5245:5249   */\n      0x24\n        /* \"#utility.yul\":5242:5243   */\n      0x00\n        /* \"#utility.yul\":5235:5250   */\n      revert\n        /* \"#utility.yul\":5262:5495   */\n    tag_61:\n        /* \"#utility.yul\":5301:5304   */\n      0x00\n        /* \"#utility.yul\":5324:5348   */\n      tag_193\n        /* \"#utility.yul\":5342:5347   */\n      dup3\n        /* \"#utility.yul\":5324:5348   */\n      tag_105\n      jump\t// in\n    tag_193:\n        /* \"#utility.yul\":5315:5348   */\n      swap2\n      pop\n        /* \"#utility.yul\":5370:5436   */\n      0xffffffffffffffffffffffffffffffffffffffffffffffffffffffffffffffff\n        /* \"#utility.yul\":5363:5368   */\n      dup3\n        /* \"#utility.yul\":5360:5437   */\n      sub\n        /* \"#utility.yul\":5357:5460   */\n      tag_194\n      jumpi\n        /* \"#utility.yul\":5440:5458   */\n      tag_195\n      tag_120\n      jump\t// in\n    tag_195:\n        /* \"#utility.yul\":5357:5460   */\n    tag_194:\n        /* \"#utility.yul\":5487:5488   */\n      0x01\n        /* \"#utility.yul\":5480:5485   */\n      dup3\n        /* \"#utility.yul\":5476:5489   */\n      add\n        /* \"#utility.yul\":5469:5489   */\n      swap1\n      pop\n        /* \"#utility.yul\":5262:5495   */\n      swap2\n      swap1\n      pop\n      jump\t// out\n        /* \"#utility.yul\":5501:5681   */\n    tag_64:\n        /* \"#utility.yul\":5549:5626   */\n      0x4e487b7100000000000000000000000000000000000000000000000000000000\n        /* \"#utility.yul\":5546:5547   */\n      0x00\n        /* \"#utility.yul\":5539:5627   */\n      mstore\n        /* \"#utility.yul\":5646:5650   */\n      0x41\n        /* \"#utility.yul\":5643:5644   */\n      0x04\n        /* \"#utility.yul\":5636:5651   */\n      mstore\n        /* \"#utility.yul\":5670:5674   */\n      0x24\n        /* \"#utility.yul\":5667:5668   */\n      0x00\n        /* \"#utility.yul\":5660:5675   */\n      revert\n        /* \"#utility.yul\":5687:5848   */\n    tag_123:\n        /* \"#utility.yul\":5827:5840   */\n      0x53656e64206661696c6564000000000000000000000000000000000000000000\n        /* \"#utility.yul\":5823:5824   */\n      0x00\n        /* \"#utility.yul\":5815:5821   */\n      dup3\n        /* \"#utility.yul\":5811:5825   */\n      add\n        /* \"#utility.yul\":5804:5841   */\n      mstore\n        /* \"#utility.yul\":5687:5848   */\n      pop\n      jump\t// out\n        /* \"#utility.yul\":5854:6220   */\n    tag_124:\n        /* \"#utility.yul\":5996:5999   */\n      0x00\n        /* \"#utility.yul\":6017:6084   */\n      tag_199\n        /* \"#utility.yul\":6081:6083   */\n      0x0b\n        /* \"#utility.yul\":6076:6079   */\n      dup4\n        /* \"#utility.yul\":6017:6084   */\n      tag_117\n      jump\t// in\n    tag_199:\n        /* \"#utility.yul\":6010:6084   */\n      swap2\n      pop\n        /* \"#utility.yul\":6093:6186   */\n      tag_200\n        /* \"#utility.yul\":6182:6185   */\n      dup3\n        /* \"#utility.yul\":6093:6186   */\n      tag_123\n      jump\t// in\n    tag_200:\n        /* \"#utility.yul\":6211:6213   */\n      0x20\n        /* \"#utility.yul\":6206:6209   */\n      dup3\n        /* \"#utility.yul\":6202:6214   */\n      add\n        /* \"#utility.yul\":6195:6214   */\n      swap1\n      pop\n        /* \"#utility.yul\":5854:6220   */\n      swap2\n      swap1\n      pop\n      jump\t// out\n        /* \"#utility.yul\":6226:6645   */\n    tag_73:\n        /* \"#utility.yul\":6392:6396   */\n      0x00\n        /* \"#utility.yul\":6430:6432   */\n      0x20\n        /* \"#utility.yul\":6419:6428   */\n      dup3\n        /* \"#utility.yul\":6415:6433   */\n      add\n        /* \"#utility.yul\":6407:6433   */\n      swap1\n      pop\n        /* \"#utility.yul\":6479:6488   */\n      dup2\n        /* \"#utility.yul\":6473:6477   */\n      dup2\n        /* \"#utility.yul\":6469:6489   */\n      sub\n        /* \"#utility.yul\":6465:6466   */\n      0x00\n        /* \"#utility.yul\":6454:6463   */\n      dup4\n        /* \"#utility.yul\":6450:6467   */\n      add\n        /* \"#utility.yul\":6443:6490   */\n      mstore\n        /* \"#utility.yul\":6507:6638   */\n      tag_202\n        /* \"#utility.yul\":6633:6637   */\n      dup2\n        /* \"#utility.yul\":6507:6638   */\n      tag_124\n      jump\t// in\n    tag_202:\n        /* \"#utility.yul\":6499:6638   */\n      swap1\n      pop\n        /* \"#utility.yul\":6226:6645   */\n      swap2\n      swap1\n      pop\n      jump\t// out\n        /* \"#utility.yul\":6651:6798   */\n    tag_125:\n        /* \"#utility.yul\":6752:6763   */\n      0x00\n        /* \"#utility.yul\":6789:6792   */\n      dup2\n        /* \"#utility.yul\":6774:6792   */\n      swap1\n      pop\n        /* \"#utility.yul\":6651:6798   */\n      swap3\n      swap2\n      pop\n      pop\n      jump\t// out\n        /* \"#utility.yul\":6804:6918   */\n    tag_126:\n      pop\n      jump\t// out\n        /* \"#utility.yul\":6924:7322   */\n    tag_127:\n        /* \"#utility.yul\":7083:7086   */\n      0x00\n        /* \"#utility.yul\":7104:7187   */\n      tag_206\n        /* \"#utility.yul\":7185:7186   */\n      0x00\n        /* \"#utility.yul\":7180:7183   */\n      dup4\n        /* \"#utility.yul\":7104:7187   */\n      tag_125\n      jump\t// in\n    tag_206:\n        /* \"#utility.yul\":7097:7187   */\n      swap2\n      pop\n        /* \"#utility.yul\":7196:7289   */\n      tag_207\n        /* \"#utility.yul\":7285:7288   */\n      dup3\n        /* \"#utility.yul\":7196:7289   */\n      tag_126\n      jump\t// in\n    tag_207:\n        /* \"#utility.yul\":7314:7315   */\n      0x00\n        /* \"#utility.yul\":7309:7312   */\n      dup3\n        /* \"#utility.yul\":7305:7316   */\n      add\n        /* \"#utility.yul\":7298:7316   */\n      swap1\n      pop\n        /* \"#utility.yul\":6924:7322   */\n      swap2\n      swap1\n      pop\n      jump\t// out\n        /* \"#utility.yul\":7328:7707   */\n    tag_75:\n        /* \"#utility.yul\":7512:7515   */\n      0x00\n        /* \"#utility.yul\":7534:7681   */\n      tag_209\n        /* \"#utility.yul\":7677:7680   */\n      dup3\n        /* \"#utility.yul\":7534:7681   */\n      tag_127\n      jump\t// in\n    tag_209:\n        /* \"#utility.yul\":7527:7681   */\n      swap2\n      pop\n        /* \"#utility.yul\":7698:7701   */\n      dup2\n        /* \"#utility.yul\":7691:7701   */\n      swap1\n      pop\n        /* \"#utility.yul\":7328:7707   */\n      swap2\n      swap1\n      pop\n      jump\t// out\n        /* \"#utility.yul\":7713:7874   */\n    tag_128:\n        /* \"#utility.yul\":7853:7866   */\n      0x63616c6c206661696c6564000000000000000000000000000000000000000000\n        /* \"#utility.yul\":7849:7850   */\n      0x00\n        /* \"#utility.yul\":7841:7847   */\n      dup3\n        /* \"#utility.yul\":7837:7851   */\n      add\n        /* \"#utility.yul\":7830:7867   */\n      mstore\n        /* \"#utility.yul\":7713:7874   */\n      pop\n      jump\t// out\n        /* \"#utility.yul\":7880:8246   */\n    tag_129:\n        /* \"#utility.yul\":8022:8025   */\n      0x00\n        /* \"#utility.yul\":8043:8110   */\n      tag_212\n        /* \"#utility.yul\":8107:8109   */\n      0x0b\n        /* \"#utility.yul\":8102:8105   */\n      dup4\n        /* \"#utility.yul\":8043:8110   */\n      tag_117\n      jump\t// in\n    tag_212:\n        /* \"#utility.yul\":8036:8110   */\n      swap2\n      pop\n        /* \"#utility.yul\":8119:8212   */\n      tag_213\n        /* \"#utility.yul\":8208:8211   */\n      dup3\n        /* \"#utility.yul\":8119:8212   */\n      tag_128\n      jump\t// in\n    tag_213:\n        /* \"#utility.yul\":8237:8239   */\n      0x20\n        /* \"#utility.yul\":8232:8235   */\n      dup3\n        /* \"#utility.yul\":8228:8240   */\n      add\n        /* \"#utility.yul\":8221:8240   */\n      swap1\n      pop\n        /* \"#utility.yul\":7880:8246   */\n      swap2\n      swap1\n      pop\n      jump\t// out\n        /* \"#utility.yul\":8252:8671   */\n    tag_81:\n        /* \"#utility.yul\":8418:8422   */\n      0x00\n        /* \"#utility.yul\":8456:8458   */\n      0x20\n        /* \"#utility.yul\":8445:8454   */\n      dup3\n        /* \"#utility.yul\":8441:8459   */\n      add\n        /* \"#utility.yul\":8433:8459   */\n      swap1\n      pop\n        /* \"#utility.yul\":8505:8514   */\n      dup2\n        /* \"#utility.yul\":8499:8503   */\n      dup2\n        /* \"#utility.yul\":8495:8515   */\n      sub\n        /* \"#utility.yul\":8491:8492   */\n      0x00\n        /* \"#utility.yul\":8480:8489   */\n      dup4\n        /* \"#utility.yul\":8476:8493   */\n      add\n        /* \"#utility.yul\":8469:8516   */\n      mstore\n        /* \"#utility.yul\":8533:8664   */\n      tag_215\n        /* \"#utility.yul\":8659:8663   */\n      dup2\n        /* \"#utility.yul\":8533:8664   */\n      tag_129\n      jump\t// in\n    tag_215:\n        /* \"#utility.yul\":8525:8664   */\n      swap1\n      pop\n        /* \"#utility.yul\":8252:8671   */\n      swap2\n      swap1\n      pop\n      jump\t// out\n        /* \"#utility.yul\":8677:9087   */\n    tag_88:\n        /* \"#utility.yul\":8717:8724   */\n      0x00\n        /* \"#utility.yul\":8740:8760   */\n      tag_217\n        /* \"#utility.yul\":8758:8759   */\n      dup3\n        /* \"#utility.yul\":8740:8760   */\n      tag_105\n      jump\t// in\n    tag_217:\n        /* \"#utility.yul\":8735:8760   */\n      swap2\n      pop\n        /* \"#utility.yul\":8774:8794   */\n      tag_218\n        /* \"#utility.yul\":8792:8793   */\n      dup4\n        /* \"#utility.yul\":8774:8794   */\n      tag_105\n      jump\t// in\n    tag_218:\n        /* \"#utility.yul\":8769:8794   */\n      swap3\n      pop\n        /* \"#utility.yul\":8829:8830   */\n      dup3\n        /* \"#utility.yul\":8826:8827   */\n      dup3\n        /* \"#utility.yul\":8822:8831   */\n      mul\n        /* \"#utility.yul\":8851:8881   */\n      tag_219\n        /* \"#utility.yul\":8869:8880   */\n      dup2\n        /* \"#utility.yul\":8851:8881   */\n      tag_105\n      jump\t// in\n    tag_219:\n        /* \"#utility.yul\":8840:8881   */\n      swap2\n      pop\n        /* \"#utility.yul\":9030:9031   */\n      dup3\n        /* \"#utility.yul\":9021:9028   */\n      dup3\n        /* \"#utility.yul\":9017:9032   */\n      div\n        /* \"#utility.yul\":9014:9015   */\n      dup5\n        /* \"#utility.yul\":9011:9033   */\n      eq\n        /* \"#utility.yul\":8991:8992   */\n      dup4\n        /* \"#utility.yul\":8984:8993   */\n      iszero\n        /* \"#utility.yul\":8964:9047   */\n      or\n        /* \"#utility.yul\":8941:9080   */\n      tag_220\n      jumpi\n        /* \"#utility.yul\":9060:9078   */\n      tag_221\n      tag_120\n      jump\t// in\n    tag_221:\n        /* \"#utility.yul\":8941:9080   */\n    tag_220:\n        /* \"#utility.yul\":8725:9087   */\n      pop\n        /* \"#utility.yul\":8677:9087   */\n      swap3\n      swap2\n      pop\n      pop\n      jump\t// out\n        /* \"#utility.yul\":9093:9273   */\n    tag_130:\n        /* \"#utility.yul\":9141:9218   */\n      0x4e487b7100000000000000000000000000000000000000000000000000000000\n        /* \"#utility.yul\":9138:9139   */\n      0x00\n        /* \"#utility.yul\":9131:9219   */\n      mstore\n        /* \"#utility.yul\":9238:9242   */\n      0x12\n        /* \"#utility.yul\":9235:9236   */\n      0x04\n        /* \"#utility.yul\":9228:9243   */\n      mstore\n        /* \"#utility.yul\":9262:9266   */\n      0x24\n        /* \"#utility.yul\":9259:9260   */\n      0x00\n        /* \"#utility.yul\":9252:9267   */\n      revert\n        /* \"#utility.yul\":9279:9464   */\n    tag_90:\n        /* \"#utility.yul\":9319:9320   */\n      0x00\n        /* \"#utility.yul\":9336:9356   */\n      tag_224\n        /* \"#utility.yul\":9354:9355   */\n      dup3\n        /* \"#utility.yul\":9336:9356   */\n      tag_105\n      jump\t// in\n    tag_224:\n        /* \"#utility.yul\":9331:9356   */\n      swap2\n      pop\n        /* \"#utility.yul\":9370:9390   */\n      tag_225\n        /* \"#utility.yul\":9388:9389   */\n      dup4\n        /* \"#utility.yul\":9370:9390   */\n      tag_105\n      jump\t// in\n    tag_225:\n        /* \"#utility.yul\":9365:9390   */\n      swap3\n      pop\n        /* \"#utility.yul\":9409:9410   */\n      dup3\n        /* \"#utility.yul\":9399:9434   */\n      tag_226\n      jumpi\n        /* \"#utility.yul\":9414:9432   */\n      tag_227\n      tag_130\n      jump\t// in\n    tag_227:\n        /* \"#utility.yul\":9399:9434   */\n    tag_226:\n        /* \"#utility.yul\":9456:9457   */\n      dup3\n        /* \"#utility.yul\":9453:9454   */\n      dup3\n        /* \"#utility.yul\":9449:9458   */\n      div\n        /* \"#utility.yul\":9444:9458   */\n      swap1\n      pop\n        /* \"#utility.yul\":9279:9464   */\n      swap3\n      swap2\n      pop\n      pop\n      jump\t// out\n        /* \"#utility.yul\":9470:9575   */\n    tag_131:\n        /* \"#utility.yul\":9506:9513   */\n      0x00\n        /* \"#utility.yul\":9546:9568   */\n      0xffffffffffffffffffff\n        /* \"#utility.yul\":9539:9544   */\n      dup3\n        /* \"#utility.yul\":9535:9569   */\n      and\n        /* \"#utility.yul\":9524:9569   */\n      swap1\n      pop\n        /* \"#utility.yul\":9470:9575   */\n      swap2\n      swap1\n      pop\n      jump\t// out\n        /* \"#utility.yul\":9581:9701   */\n    tag_132:\n        /* \"#utility.yul\":9653:9676   */\n      tag_230\n        /* \"#utility.yul\":9670:9675   */\n      dup2\n        /* \"#utility.yul\":9653:9676   */\n      tag_131\n      jump\t// in\n    tag_230:\n        /* \"#utility.yul\":9646:9651   */\n      dup2\n        /* \"#utility.yul\":9643:9677   */\n      eq\n        /* \"#utility.yul\":9633:9695   */\n      tag_231\n      jumpi\n        /* \"#utility.yul\":9691:9692   */\n      0x00\n        /* \"#utility.yul\":9688:9689   */\n      dup1\n        /* \"#utility.yul\":9681:9693   */\n      revert\n        /* \"#utility.yul\":9633:9695   */\n    tag_231:\n        /* \"#utility.yul\":9581:9701   */\n      pop\n      jump\t// out\n        /* \"#utility.yul\":9707:9848   */\n    tag_133:\n        /* \"#utility.yul\":9763:9768   */\n      0x00\n        /* \"#utility.yul\":9794:9800   */\n      dup2\n        /* \"#utility.yul\":9788:9801   */\n      mload\n        /* \"#utility.yul\":9779:9801   */\n      swap1\n      pop\n        /* \"#utility.yul\":9810:9842   */\n      tag_233\n        /* \"#utility.yul\":9836:9841   */\n      dup2\n        /* \"#utility.yul\":9810:9842   */\n      tag_132\n      jump\t// in\n    tag_233:\n        /* \"#utility.yul\":9707:9848   */\n      swap3\n      swap2\n      pop\n      pop\n      jump\t// out\n        /* \"#utility.yul\":9854:9930   */\n    tag_134:\n        /* \"#utility.yul\":9890:9897   */\n      0x00\n        /* \"#utility.yul\":9919:9924   */\n      dup2\n        /* \"#utility.yul\":9908:9924   */\n      swap1\n      pop\n        /* \"#utility.yul\":9854:9930   */\n      swap2\n      swap1\n      pop\n      jump\t// out\n        /* \"#utility.yul\":9936:10056   */\n    tag_135:\n        /* \"#utility.yul\":10008:10031   */\n      tag_236\n        /* \"#utility.yul\":10025:10030   */\n      dup2\n        /* \"#utility.yul\":10008:10031   */\n      tag_134\n      jump\t// in\n    tag_236:\n        /* \"#utility.yul\":10001:10006   */\n      dup2\n        /* \"#utility.yul\":9998:10032   */\n      eq\n        /* \"#utility.yul\":9988:10050   */\n      tag_237\n      jumpi\n        /* \"#utility.yul\":10046:10047   */\n      0x00\n        /* \"#utility.yul\":10043:10044   */\n      dup1\n        /* \"#utility.yul\":10036:10048   */\n      revert\n        /* \"#utility.yul\":9988:10050   */\n    tag_237:\n        /* \"#utility.yul\":9936:10056   */\n      pop\n      jump\t// out\n        /* \"#utility.yul\":10062:10203   */\n    tag_136:\n        /* \"#utility.yul\":10118:10123   */\n      0x00\n        /* \"#utility.yul\":10149:10155   */\n      dup2\n        /* \"#utility.yul\":10143:10156   */\n      mload\n        /* \"#utility.yul\":10134:10156   */\n      swap1\n      pop\n        /* \"#utility.yul\":10165:10197   */\n      tag_239\n        /* \"#utility.yul\":10191:10196   */\n      dup2\n        /* \"#utility.yul\":10165:10197   */\n      tag_135\n      jump\t// in\n    tag_239:\n        /* \"#utility.yul\":10062:10203   */\n      swap3\n      swap2\n      pop\n      pop\n      jump\t// out\n        /* \"#utility.yul\":10209:10352   */\n    tag_137:\n        /* \"#utility.yul\":10266:10271   */\n      0x00\n        /* \"#utility.yul\":10297:10303   */\n      dup2\n        /* \"#utility.yul\":10291:10304   */\n      mload\n        /* \"#utility.yul\":10282:10304   */\n      swap1\n      pop\n        /* \"#utility.yul\":10313:10346   */\n      tag_241\n        /* \"#utility.yul\":10340:10345   */\n      dup2\n        /* \"#utility.yul\":10313:10346   */\n      tag_115\n      jump\t// in\n    tag_241:\n        /* \"#utility.yul\":10209:10352   */\n      swap3\n      swap2\n      pop\n      pop\n      jump\t// out\n        /* \"#utility.yul\":10358:11329   */\n    tag_95:\n        /* \"#utility.yul\":10461:10467   */\n      0x00\n        /* \"#utility.yul\":10469:10475   */\n      dup1\n        /* \"#utility.yul\":10477:10483   */\n      0x00\n        /* \"#utility.yul\":10485:10491   */\n      dup1\n        /* \"#utility.yul\":10493:10499   */\n      0x00\n        /* \"#utility.yul\":10542:10545   */\n      0xa0\n        /* \"#utility.yul\":10530:10539   */\n      dup7\n        /* \"#utility.yul\":10521:10528   */\n      dup9\n        /* \"#utility.yul\":10517:10540   */\n      sub\n        /* \"#utility.yul\":10513:10546   */\n      slt\n        /* \"#utility.yul\":10510:10630   */\n      iszero\n      tag_243\n      jumpi\n        /* \"#utility.yul\":10549:10628   */\n      tag_244\n      tag_108\n      jump\t// in\n    tag_244:\n        /* \"#utility.yul\":10510:10630   */\n    tag_243:\n        /* \"#utility.yul\":10669:10670   */\n      0x00\n        /* \"#utility.yul\":10694:10757   */\n      tag_245\n        /* \"#utility.yul\":10749:10756   */\n      dup9\n        /* \"#utility.yul\":10740:10746   */\n      dup3\n        /* \"#utility.yul\":10729:10738   */\n      dup10\n        /* \"#utility.yul\":10725:10747   */\n      add\n        /* \"#utility.yul\":10694:10757   */\n      tag_133\n      jump\t// in\n    tag_245:\n        /* \"#utility.yul\":10684:10757   */\n      swap6\n      pop\n        /* \"#utility.yul\":10640:10767   */\n      pop\n        /* \"#utility.yul\":10806:10808   */\n      0x20\n        /* \"#utility.yul\":10832:10895   */\n      tag_246\n        /* \"#utility.yul\":10887:10894   */\n      dup9\n        /* \"#utility.yul\":10878:10884   */\n      dup3\n        /* \"#utility.yul\":10867:10876   */\n      dup10\n        /* \"#utility.yul\":10863:10885   */\n      add\n        /* \"#utility.yul\":10832:10895   */\n      tag_136\n      jump\t// in\n    tag_246:\n        /* \"#utility.yul\":10822:10895   */\n      swap5\n      pop\n        /* \"#utility.yul\":10777:10905   */\n      pop\n        /* \"#utility.yul\":10944:10946   */\n      0x40\n        /* \"#utility.yul\":10970:11034   */\n      tag_247\n        /* \"#utility.yul\":11026:11033   */\n      dup9\n        /* \"#utility.yul\":11017:11023   */\n      dup3\n        /* \"#utility.yul\":11006:11015   */\n      dup10\n        /* \"#utility.yul\":11002:11024   */\n      add\n        /* \"#utility.yul\":10970:11034   */\n      tag_137\n      jump\t// in\n    tag_247:\n        /* \"#utility.yul\":10960:11034   */\n      swap4\n      pop\n        /* \"#utility.yul\":10915:11044   */\n      pop\n        /* \"#utility.yul\":11083:11085   */\n      0x60\n        /* \"#utility.yul\":11109:11173   */\n      tag_248\n        /* \"#utility.yul\":11165:11172   */\n      dup9\n        /* \"#utility.yul\":11156:11162   */\n      dup3\n        /* \"#utility.yul\":11145:11154   */\n      dup10\n        /* \"#utility.yul\":11141:11163   */\n      add\n        /* \"#utility.yul\":11109:11173   */\n      tag_137\n      jump\t// in\n    tag_248:\n        /* \"#utility.yul\":11099:11173   */\n      swap3\n      pop\n        /* \"#utility.yul\":11054:11183   */\n      pop\n        /* \"#utility.yul\":11222:11225   */\n      0x80\n        /* \"#utility.yul\":11249:11312   */\n      tag_249\n        /* \"#utility.yul\":11304:11311   */\n      dup9\n        /* \"#utility.yul\":11295:11301   */\n      dup3\n        /* \"#utility.yul\":11284:11293   */\n      dup10\n        /* \"#utility.yul\":11280:11302   */\n      add\n        /* \"#utility.yul\":11249:11312   */\n      tag_133\n      jump\t// in\n    tag_249:\n        /* \"#utility.yul\":11239:11312   */\n      swap2\n      pop\n        /* \"#utility.yul\":11193:11322   */\n      pop\n        /* \"#utility.yul\":10358:11329   */\n      swap3\n      swap6\n      pop\n      swap3\n      swap6\n      swap1\n      swap4\n      pop\n      jump\t// out\n        /* \"#utility.yul\":11335:11891   */\n    tag_97:\n        /* \"#utility.yul\":11374:11381   */\n      0x00\n        /* \"#utility.yul\":11397:11416   */\n      tag_251\n        /* \"#utility.yul\":11414:11415   */\n      dup3\n        /* \"#utility.yul\":11397:11416   */\n      tag_134\n      jump\t// in\n    tag_251:\n        /* \"#utility.yul\":11392:11416   */\n      swap2\n      pop\n        /* \"#utility.yul\":11430:11449   */\n      tag_252\n        /* \"#utility.yul\":11447:11448   */\n      dup4\n        /* \"#utility.yul\":11430:11449   */\n      tag_134\n      jump\t// in\n    tag_252:\n        /* \"#utility.yul\":11425:11449   */\n      swap3\n      pop\n        /* \"#utility.yul\":11484:11485   */\n      dup3\n        /* \"#utility.yul\":11481:11482   */\n      dup3\n        /* \"#utility.yul\":11477:11486   */\n      mul\n        /* \"#utility.yul\":11506:11535   */\n      tag_253\n        /* \"#utility.yul\":11523:11534   */\n      dup2\n        /* \"#utility.yul\":11506:11535   */\n      tag_134\n      jump\t// in\n    tag_253:\n        /* \"#utility.yul\":11495:11535   */\n      swap2\n      pop\n        /* \"#utility.yul\":11593:11659   */\n      0x8000000000000000000000000000000000000000000000000000000000000000\n        /* \"#utility.yul\":11590:11591   */\n      dup5\n        /* \"#utility.yul\":11587:11660   */\n      eq\n        /* \"#utility.yul\":11583:11584   */\n      0x00\n        /* \"#utility.yul\":11580:11581   */\n      dup5\n        /* \"#utility.yul\":11576:11585   */\n      slt\n        /* \"#utility.yul\":11572:11661   */\n      and\n        /* \"#utility.yul\":11569:11684   */\n      iszero\n      tag_254\n      jumpi\n        /* \"#utility.yul\":11664:11682   */\n      tag_255\n      tag_120\n      jump\t// in\n    tag_255:\n        /* \"#utility.yul\":11569:11684   */\n    tag_254:\n        /* \"#utility.yul\":11834:11835   */\n      dup3\n        /* \"#utility.yul\":11825:11832   */\n      dup3\n        /* \"#utility.yul\":11820:11836   */\n      sdiv\n        /* \"#utility.yul\":11817:11818   */\n      dup5\n        /* \"#utility.yul\":11814:11837   */\n      eq\n        /* \"#utility.yul\":11794:11795   */\n      dup4\n        /* \"#utility.yul\":11787:11796   */\n      iszero\n        /* \"#utility.yul\":11767:11851   */\n      or\n        /* \"#utility.yul\":11744:11884   */\n      tag_256\n      jumpi\n        /* \"#utility.yul\":11864:11882   */\n      tag_257\n      tag_120\n      jump\t// in\n    tag_257:\n        /* \"#utility.yul\":11744:11884   */\n    tag_256:\n        /* \"#utility.yul\":11382:11891   */\n      pop\n        /* \"#utility.yul\":11335:11891   */\n      swap3\n      swap2\n      pop\n      pop\n      jump\t// out\n\n    auxdata: 0xa26469706673582212207c3e1ebaa77fcf8f69742775427e12a28e02ab4acc3fd4a643dbfaf9851e945864736f6c63430008130033\n}\n",
				"bytecode": {
					"linkReferences": {},
					"object": "6080604052674563918244f4000060005534801561001c57600080fd5b5033600360006101000a81548173ffffffffffffffffffffffffffffffffffffffff021916908373ffffffffffffffffffffffffffffffffffffffff160217905550610e2f8061006d6000396000f3fe6080604052600436106100595760003560e01c80633430a88c1461006d5780633ccfd60b146100985780633e47d6f3146100af5780638da5cb5b146100ec578063b60d428814610117578063dc0d3dff1461012157610068565b366100685761006661015e565b005b600080fd5b34801561007957600080fd5b50610082610266565b60405161008f9190610799565b60405180910390f35b3480156100a457600080fd5b506100ad61026c565b005b3480156100bb57600080fd5b506100d660048036038101906100d19190610817565b610579565b6040516100e39190610799565b60405180910390f35b3480156100f857600080fd5b50610101610591565b60405161010e9190610853565b60405180910390f35b61011f61015e565b005b34801561012d57600080fd5b506101486004803603810190610143919061089a565b6105b7565b6040516101559190610853565b60405180910390f35b60005461016a346105f6565b10156101ab576040517f08c379a00000000000000000000000000000000000000000000000000000000081526004016101a290610924565b60405180910390fd5b6001339080600181540180825580915050600190039060005260206000200160009091909190916101000a81548173ffffffffffffffffffffffffffffffffffffffff021916908373ffffffffffffffffffffffffffffffffffffffff16021790555034600260003373ffffffffffffffffffffffffffffffffffffffff1673ffffffffffffffffffffffffffffffffffffffff168152602001908152602001600020600082825461025d9190610973565b92505081905550565b60005481565b600360009054906101000a900473ffffffffffffffffffffffffffffffffffffffff1673ffffffffffffffffffffffffffffffffffffffff163373ffffffffffffffffffffffffffffffffffffffff16146102fc576040517f08c379a00000000000000000000000000000000000000000000000000000000081526004016102f3906109f3565b60405180910390fd5b60005b6001805490508110156103a85760006001828154811061032257610321610a13565b5b9060005260206000200160009054906101000a900473ffffffffffffffffffffffffffffffffffffffff1690506000600260008373ffffffffffffffffffffffffffffffffffffffff1673ffffffffffffffffffffffffffffffffffffffff168152602001908152602001600020819055505080806103a090610a42565b9150506102ff565b50600067ffffffffffffffff8111156103c4576103c3610a8a565b5b6040519080825280602002602001820160405280156103f25781602001602082028036833780820191505090505b50600190805190602001906104089291906106d9565b503373ffffffffffffffffffffffffffffffffffffffff166108fc479081150290604051600060405180830381858888f1935050505015801561044f573d6000803e3d6000fd5b5060003373ffffffffffffffffffffffffffffffffffffffff166108fc479081150290604051600060405180830381858888f193505050509050806104c9576040517f08c379a00000000000000000000000000000000000000000000000000000000081526004016104c090610b05565b60405180910390fd5b60003373ffffffffffffffffffffffffffffffffffffffff16476040516104ef90610b56565b60006040518083038185875af1925050503d806000811461052c576040519150601f19603f3d011682016040523d82523d6000602084013e610531565b606091505b5050905080610575576040517f08c379a000000000000000000000000000000000000000000000000000000000815260040161056c90610bb7565b60405180910390fd5b5050565b60026020528060005260406000206000915090505481565b600360009054906101000a900473ffffffffffffffffffffffffffffffffffffffff1681565b600181815481106105c757600080fd5b906000526020600020016000915054906101000a900473ffffffffffffffffffffffffffffffffffffffff1681565b600080610601610630565b90506000670de0b6b3a7640000848361061a9190610bd7565b6106249190610c48565b90508092505050919050565b60008073694aa1769357215de4fac081bf1f309adc325306905060008173ffffffffffffffffffffffffffffffffffffffff1663feaf968c6040518163ffffffff1660e01b815260040160a060405180830381865afa158015610697573d6000803e3d6000fd5b505050506040513d601f19601f820116820180604052508101906106bb9190610d06565b5050509150506402540be400816106d29190610d81565b9250505090565b828054828255906000526020600020908101928215610752579160200282015b828111156107515782518260006101000a81548173ffffffffffffffffffffffffffffffffffffffff021916908373ffffffffffffffffffffffffffffffffffffffff160217905550916020019190600101906106f9565b5b50905061075f9190610763565b5090565b5b8082111561077c576000816000905550600101610764565b5090565b6000819050919050565b61079381610780565b82525050565b60006020820190506107ae600083018461078a565b92915050565b600080fd5b600073ffffffffffffffffffffffffffffffffffffffff82169050919050565b60006107e4826107b9565b9050919050565b6107f4816107d9565b81146107ff57600080fd5b50565b600081359050610811816107eb565b92915050565b60006020828403121561082d5761082c6107b4565b5b600061083b84828501610802565b91505092915050565b61084d816107d9565b82525050565b60006020820190506108686000830184610844565b92915050565b61087781610780565b811461088257600080fd5b50565b6000813590506108948161086e565b92915050565b6000602082840312156108b0576108af6107b4565b5b60006108be84828501610885565b91505092915050565b600082825260208201905092915050565b7f4469646e27742073656e6420656e6f7567682045544800000000000000000000600082015250565b600061090e6016836108c7565b9150610919826108d8565b602082019050919050565b6000602082019050818103600083015261093d81610901565b9050919050565b7f4e487b7100000000000000000000000000000000000000000000000000000000600052601160045260246000fd5b600061097e82610780565b915061098983610780565b92508282019050808211156109a1576109a0610944565b5b92915050565b7f53656e646572206973206e6f74206f776e657200000000000000000000000000600082015250565b60006109dd6013836108c7565b91506109e8826109a7565b602082019050919050565b60006020820190508181036000830152610a0c816109d0565b9050919050565b7f4e487b7100000000000000000000000000000000000000000000000000000000600052603260045260246000fd5b6000610a4d82610780565b91507fffffffffffffffffffffffffffffffffffffffffffffffffffffffffffffffff8203610a7f57610a7e610944565b5b600182019050919050565b7f4e487b7100000000000000000000000000000000000000000000000000000000600052604160045260246000fd5b7f53656e64206661696c6564000000000000000000000000000000000000000000600082015250565b6000610aef600b836108c7565b9150610afa82610ab9565b602082019050919050565b60006020820190508181036000830152610b1e81610ae2565b9050919050565b600081905092915050565b50565b6000610b40600083610b25565b9150610b4b82610b30565b600082019050919050565b6000610b6182610b33565b9150819050919050565b7f63616c6c206661696c6564000000000000000000000000000000000000000000600082015250565b6000610ba1600b836108c7565b9150610bac82610b6b565b602082019050919050565b60006020820190508181036000830152610bd081610b94565b9050919050565b6000610be282610780565b9150610bed83610780565b9250828202610bfb81610780565b91508282048414831517610c1257610c11610944565b5b5092915050565b7f4e487b7100000000000000000000000000000000000000000000000000000000600052601260045260246000fd5b6000610c5382610780565b9150610c5e83610780565b925082610c6e57610c6d610c19565b5b828204905092915050565b600069ffffffffffffffffffff82169050919050565b610c9881610c79565b8114610ca357600080fd5b50565b600081519050610cb581610c8f565b92915050565b6000819050919050565b610cce81610cbb565b8114610cd957600080fd5b50565b600081519050610ceb81610cc5565b92915050565b600081519050610d008161086e565b92915050565b600080600080600060a08688031215610d2257610d216107b4565b5b6000610d3088828901610ca6565b9550506020610d4188828901610cdc565b9450506040610d5288828901610cf1565b9350506060610d6388828901610cf1565b9250506080610d7488828901610ca6565b9150509295509295909350565b6000610d8c82610cbb565b9150610d9783610cbb565b9250828202610da581610cbb565b91507f80000000000000000000000000000000000000000000000000000000000000008414600084121615610ddd57610ddc610944565b5b8282058414831517610df257610df1610944565b5b509291505056fea26469706673582212207c3e1ebaa77fcf8f69742775427e12a28e02ab4acc3fd4a643dbfaf9851e945864736f6c63430008130033",
					"opcodes": "PUSH1 0x80 PUSH1 0x40 MSTORE PUSH8 0x4563918244F40000 PUSH1 0x0 SSTORE CALLVALUE DUP1 ISZERO PUSH2 0x1C JUMPI PUSH1 0x0 DUP1 REVERT JUMPDEST POP CALLER PUSH1 0x3 PUSH1 0x0 PUSH2 0x100 EXP DUP2 SLOAD DUP2 PUSH20 0xFFFFFFFFFFFFFFFFFFFFFFFFFFFFFFFFFFFFFFFF MUL NOT AND SWAP1 DUP4 PUSH20 0xFFFFFFFFFFFFFFFFFFFFFFFFFFFFFFFFFFFFFFFF AND MUL OR SWAP1 SSTORE POP PUSH2 0xE2F DUP1 PUSH2 0x6D PUSH1 0x0 CODECOPY PUSH1 0x0 RETURN INVALID PUSH1 0x80 PUSH1 0x40 MSTORE PUSH1 0x4 CALLDATASIZE LT PUSH2 0x59 JUMPI PUSH1 0x0 CALLDATALOAD PUSH1 0xE0 SHR DUP1 PUSH4 0x3430A88C EQ PUSH2 0x6D JUMPI DUP1 PUSH4 0x3CCFD60B EQ PUSH2 0x98 JUMPI DUP1 PUSH4 0x3E47D6F3 EQ PUSH2 0xAF JUMPI DUP1 PUSH4 0x8DA5CB5B EQ PUSH2 0xEC JUMPI DUP1 PUSH4 0xB60D4288 EQ PUSH2 0x117 JUMPI DUP1 PUSH4 0xDC0D3DFF EQ PUSH2 0x121 JUMPI PUSH2 0x68 JUMP JUMPDEST CALLDATASIZE PUSH2 0x68 JUMPI PUSH2 0x66 PUSH2 0x15E JUMP JUMPDEST STOP JUMPDEST PUSH1 0x0 DUP1 REVERT JUMPDEST CALLVALUE DUP1 ISZERO PUSH2 0x79 JUMPI PUSH1 0x0 DUP1 REVERT JUMPDEST POP PUSH2 0x82 PUSH2 0x266 JUMP JUMPDEST PUSH1 0x40 MLOAD PUSH2 0x8F SWAP2 SWAP1 PUSH2 0x799 JUMP JUMPDEST PUSH1 0x40 MLOAD DUP1 SWAP2 SUB SWAP1 RETURN JUMPDEST CALLVALUE DUP1 ISZERO PUSH2 0xA4 JUMPI PUSH1 0x0 DUP1 REVERT JUMPDEST POP PUSH2 0xAD PUSH2 0x26C JUMP JUMPDEST STOP JUMPDEST CALLVALUE DUP1 ISZERO PUSH2 0xBB JUMPI PUSH1 0x0 DUP1 REVERT JUMPDEST POP PUSH2 0xD6 PUSH1 0x4 DUP1 CALLDATASIZE SUB DUP2 ADD SWAP1 PUSH2 0xD1 SWAP2 SWAP1 PUSH2 0x817 JUMP JUMPDEST PUSH2 0x579 JUMP JUMPDEST PUSH1 0x40 MLOAD PUSH2 0xE3 SWAP2 SWAP1 PUSH2 0x799 JUMP JUMPDEST PUSH1 0x40 MLOAD DUP1 SWAP2 SUB SWAP1 RETURN JUMPDEST CALLVALUE DUP1 ISZERO PUSH2 0xF8 JUMPI PUSH1 0x0 DUP1 REVERT JUMPDEST POP PUSH2 0x101 PUSH2 0x591 JUMP JUMPDEST PUSH1 0x40 MLOAD PUSH2 0x10E SWAP2 SWAP1 PUSH2 0x853 JUMP JUMPDEST PUSH1 0x40 MLOAD DUP1 SWAP2 SUB SWAP1 RETURN JUMPDEST PUSH2 0x11F PUSH2 0x15E JUMP JUMPDEST STOP JUMPDEST CALLVALUE DUP1 ISZERO PUSH2 0x12D JUMPI PUSH1 0x0 DUP1 REVERT JUMPDEST POP PUSH2 0x148 PUSH1 0x4 DUP1 CALLDATASIZE SUB DUP2 ADD SWAP1 PUSH2 0x143 SWAP2 SWAP1 PUSH2 0x89A JUMP JUMPDEST PUSH2 0x5B7 JUMP JUMPDEST PUSH1 0x40 MLOAD PUSH2 0x155 SWAP2 SWAP1 PUSH2 0x853 JUMP JUMPDEST PUSH1 0x40 MLOAD DUP1 SWAP2 SUB SWAP1 RETURN JUMPDEST PUSH1 0x0 SLOAD PUSH2 0x16A CALLVALUE PUSH2 0x5F6 JUMP JUMPDEST LT ISZERO PUSH2 0x1AB JUMPI PUSH1 0x40 MLOAD PUSH32 0x8C379A000000000000000000000000000000000000000000000000000000000 DUP2 MSTORE PUSH1 0x4 ADD PUSH2 0x1A2 SWAP1 PUSH2 0x924 JUMP JUMPDEST PUSH1 0x40 MLOAD DUP1 SWAP2 SUB SWAP1 REVERT JUMPDEST PUSH1 0x1 CALLER SWAP1 DUP1 PUSH1 0x1 DUP2 SLOAD ADD DUP1 DUP3 SSTORE DUP1 SWAP2 POP POP PUSH1 0x1 SWAP1 SUB SWAP1 PUSH1 0x0 MSTORE PUSH1 0x20 PUSH1 0x0 KECCAK256 ADD PUSH1 0x0 SWAP1 SWAP2 SWAP1 SWAP2 SWAP1 SWAP2 PUSH2 0x100 EXP DUP2 SLOAD DUP2 PUSH20 0xFFFFFFFFFFFFFFFFFFFFFFFFFFFFFFFFFFFFFFFF MUL NOT AND SWAP1 DUP4 PUSH20 0xFFFFFFFFFFFFFFFFFFFFFFFFFFFFFFFFFFFFFFFF AND MUL OR SWAP1 SSTORE POP CALLVALUE PUSH1 0x2 PUSH1 0x0 CALLER PUSH20 0xFFFFFFFFFFFFFFFFFFFFFFFFFFFFFFFFFFFFFFFF AND PUSH20 0xFFFFFFFFFFFFFFFFFFFFFFFFFFFFFFFFFFFFFFFF AND DUP2 MSTORE PUSH1 0x20 ADD SWAP1 DUP2 MSTORE PUSH1 0x20 ADD PUSH1 0x0 KECCAK256 PUSH1 0x0 DUP3 DUP3 SLOAD PUSH2 0x25D SWAP2 SWAP1 PUSH2 0x973 JUMP JUMPDEST SWAP3 POP POP DUP2 SWAP1 SSTORE POP JUMP JUMPDEST PUSH1 0x0 SLOAD DUP2 JUMP JUMPDEST PUSH1 0x3 PUSH1 0x0 SWAP1 SLOAD SWAP1 PUSH2 0x100 EXP SWAP1 DIV PUSH20 0xFFFFFFFFFFFFFFFFFFFFFFFFFFFFFFFFFFFFFFFF AND PUSH20 0xFFFFFFFFFFFFFFFFFFFFFFFFFFFFFFFFFFFFFFFF AND CALLER PUSH20 0xFFFFFFFFFFFFFFFFFFFFFFFFFFFFFFFFFFFFFFFF AND EQ PUSH2 0x2FC JUMPI PUSH1 0x40 MLOAD PUSH32 0x8C379A000000000000000000000000000000000000000000000000000000000 DUP2 MSTORE PUSH1 0x4 ADD PUSH2 0x2F3 SWAP1 PUSH2 0x9F3 JUMP JUMPDEST PUSH1 0x40 MLOAD DUP1 SWAP2 SUB SWAP1 REVERT JUMPDEST PUSH1 0x0 JUMPDEST PUSH1 0x1 DUP1 SLOAD SWAP1 POP DUP2 LT ISZERO PUSH2 0x3A8 JUMPI PUSH1 0x0 PUSH1 0x1 DUP3 DUP2 SLOAD DUP2 LT PUSH2 0x322 JUMPI PUSH2 0x321 PUSH2 0xA13 JUMP JUMPDEST JUMPDEST SWAP1 PUSH1 0x0 MSTORE PUSH1 0x20 PUSH1 0x0 KECCAK256 ADD PUSH1 0x0 SWAP1 SLOAD SWAP1 PUSH2 0x100 EXP SWAP1 DIV PUSH20 0xFFFFFFFFFFFFFFFFFFFFFFFFFFFFFFFFFFFFFFFF AND SWAP1 POP PUSH1 0x0 PUSH1 0x2 PUSH1 0x0 DUP4 PUSH20 0xFFFFFFFFFFFFFFFFFFFFFFFFFFFFFFFFFFFFFFFF AND PUSH20 0xFFFFFFFFFFFFFFFFFFFFFFFFFFFFFFFFFFFFFFFF AND DUP2 MSTORE PUSH1 0x20 ADD SWAP1 DUP2 MSTORE PUSH1 0x20 ADD PUSH1 0x0 KECCAK256 DUP2 SWAP1 SSTORE POP POP DUP1 DUP1 PUSH2 0x3A0 SWAP1 PUSH2 0xA42 JUMP JUMPDEST SWAP2 POP POP PUSH2 0x2FF JUMP JUMPDEST POP PUSH1 0x0 PUSH8 0xFFFFFFFFFFFFFFFF DUP2 GT ISZERO PUSH2 0x3C4 JUMPI PUSH2 0x3C3 PUSH2 0xA8A JUMP JUMPDEST JUMPDEST PUSH1 0x40 MLOAD SWAP1 DUP1 DUP3 MSTORE DUP1 PUSH1 0x20 MUL PUSH1 0x20 ADD DUP3 ADD PUSH1 0x40 MSTORE DUP1 ISZERO PUSH2 0x3F2 JUMPI DUP2 PUSH1 0x20 ADD PUSH1 0x20 DUP3 MUL DUP1 CALLDATASIZE DUP4 CALLDATACOPY DUP1 DUP3 ADD SWAP2 POP POP SWAP1 POP JUMPDEST POP PUSH1 0x1 SWAP1 DUP1 MLOAD SWAP1 PUSH1 0x20 ADD SWAP1 PUSH2 0x408 SWAP3 SWAP2 SWAP1 PUSH2 0x6D9 JUMP JUMPDEST POP CALLER PUSH20 0xFFFFFFFFFFFFFFFFFFFFFFFFFFFFFFFFFFFFFFFF AND PUSH2 0x8FC SELFBALANCE SWAP1 DUP2 ISZERO MUL SWAP1 PUSH1 0x40 MLOAD PUSH1 0x0 PUSH1 0x40 MLOAD DUP1 DUP4 SUB DUP2 DUP6 DUP9 DUP9 CALL SWAP4 POP POP POP POP ISZERO DUP1 ISZERO PUSH2 0x44F JUMPI RETURNDATASIZE PUSH1 0x0 DUP1 RETURNDATACOPY RETURNDATASIZE PUSH1 0x0 REVERT JUMPDEST POP PUSH1 0x0 CALLER PUSH20 0xFFFFFFFFFFFFFFFFFFFFFFFFFFFFFFFFFFFFFFFF AND PUSH2 0x8FC SELFBALANCE SWAP1 DUP2 ISZERO MUL SWAP1 PUSH1 0x40 MLOAD PUSH1 0x0 PUSH1 0x40 MLOAD DUP1 DUP4 SUB DUP2 DUP6 DUP9 DUP9 CALL SWAP4 POP POP POP POP SWAP1 POP DUP1 PUSH2 0x4C9 JUMPI PUSH1 0x40 MLOAD PUSH32 0x8C379A000000000000000000000000000000000000000000000000000000000 DUP2 MSTORE PUSH1 0x4 ADD PUSH2 0x4C0 SWAP1 PUSH2 0xB05 JUMP JUMPDEST PUSH1 0x40 MLOAD DUP1 SWAP2 SUB SWAP1 REVERT JUMPDEST PUSH1 0x0 CALLER PUSH20 0xFFFFFFFFFFFFFFFFFFFFFFFFFFFFFFFFFFFFFFFF AND SELFBALANCE PUSH1 0x40 MLOAD PUSH2 0x4EF SWAP1 PUSH2 0xB56 JUMP JUMPDEST PUSH1 0x0 PUSH1 0x40 MLOAD DUP1 DUP4 SUB DUP2 DUP6 DUP8 GAS CALL SWAP3 POP POP POP RETURNDATASIZE DUP1 PUSH1 0x0 DUP2 EQ PUSH2 0x52C JUMPI PUSH1 0x40 MLOAD SWAP2 POP PUSH1 0x1F NOT PUSH1 0x3F RETURNDATASIZE ADD AND DUP3 ADD PUSH1 0x40 MSTORE RETURNDATASIZE DUP3 MSTORE RETURNDATASIZE PUSH1 0x0 PUSH1 0x20 DUP5 ADD RETURNDATACOPY PUSH2 0x531 JUMP JUMPDEST PUSH1 0x60 SWAP2 POP JUMPDEST POP POP SWAP1 POP DUP1 PUSH2 0x575 JUMPI PUSH1 0x40 MLOAD PUSH32 0x8C379A000000000000000000000000000000000000000000000000000000000 DUP2 MSTORE PUSH1 0x4 ADD PUSH2 0x56C SWAP1 PUSH2 0xBB7 JUMP JUMPDEST PUSH1 0x40 MLOAD DUP1 SWAP2 SUB SWAP1 REVERT JUMPDEST POP POP JUMP JUMPDEST PUSH1 0x2 PUSH1 0x20 MSTORE DUP1 PUSH1 0x0 MSTORE PUSH1 0x40 PUSH1 0x0 KECCAK256 PUSH1 0x0 SWAP2 POP SWAP1 POP SLOAD DUP2 JUMP JUMPDEST PUSH1 0x3 PUSH1 0x0 SWAP1 SLOAD SWAP1 PUSH2 0x100 EXP SWAP1 DIV PUSH20 0xFFFFFFFFFFFFFFFFFFFFFFFFFFFFFFFFFFFFFFFF AND DUP2 JUMP JUMPDEST PUSH1 0x1 DUP2 DUP2 SLOAD DUP2 LT PUSH2 0x5C7 JUMPI PUSH1 0x0 DUP1 REVERT JUMPDEST SWAP1 PUSH1 0x0 MSTORE PUSH1 0x20 PUSH1 0x0 KECCAK256 ADD PUSH1 0x0 SWAP2 POP SLOAD SWAP1 PUSH2 0x100 EXP SWAP1 DIV PUSH20 0xFFFFFFFFFFFFFFFFFFFFFFFFFFFFFFFFFFFFFFFF AND DUP2 JUMP JUMPDEST PUSH1 0x0 DUP1 PUSH2 0x601 PUSH2 0x630 JUMP JUMPDEST SWAP1 POP PUSH1 0x0 PUSH8 0xDE0B6B3A7640000 DUP5 DUP4 PUSH2 0x61A SWAP2 SWAP1 PUSH2 0xBD7 JUMP JUMPDEST PUSH2 0x624 SWAP2 SWAP1 PUSH2 0xC48 JUMP JUMPDEST SWAP1 POP DUP1 SWAP3 POP POP POP SWAP2 SWAP1 POP JUMP JUMPDEST PUSH1 0x0 DUP1 PUSH20 0x694AA1769357215DE4FAC081BF1F309ADC325306 SWAP1 POP PUSH1 0x0 DUP2 PUSH20 0xFFFFFFFFFFFFFFFFFFFFFFFFFFFFFFFFFFFFFFFF AND PUSH4 0xFEAF968C PUSH1 0x40 MLOAD DUP2 PUSH4 0xFFFFFFFF AND PUSH1 0xE0 SHL DUP2 MSTORE PUSH1 0x4 ADD PUSH1 0xA0 PUSH1 0x40 MLOAD DUP1 DUP4 SUB DUP2 DUP7 GAS STATICCALL ISZERO DUP1 ISZERO PUSH2 0x697 JUMPI RETURNDATASIZE PUSH1 0x0 DUP1 RETURNDATACOPY RETURNDATASIZE PUSH1 0x0 REVERT JUMPDEST POP POP POP POP PUSH1 0x40 MLOAD RETURNDATASIZE PUSH1 0x1F NOT PUSH1 0x1F DUP3 ADD AND DUP3 ADD DUP1 PUSH1 0x40 MSTORE POP DUP2 ADD SWAP1 PUSH2 0x6BB SWAP2 SWAP1 PUSH2 0xD06 JUMP JUMPDEST POP POP POP SWAP2 POP POP PUSH5 0x2540BE400 DUP2 PUSH2 0x6D2 SWAP2 SWAP1 PUSH2 0xD81 JUMP JUMPDEST SWAP3 POP POP POP SWAP1 JUMP JUMPDEST DUP3 DUP1 SLOAD DUP3 DUP3 SSTORE SWAP1 PUSH1 0x0 MSTORE PUSH1 0x20 PUSH1 0x0 KECCAK256 SWAP1 DUP2 ADD SWAP3 DUP3 ISZERO PUSH2 0x752 JUMPI SWAP2 PUSH1 0x20 MUL DUP3 ADD JUMPDEST DUP3 DUP2 GT ISZERO PUSH2 0x751 JUMPI DUP3 MLOAD DUP3 PUSH1 0x0 PUSH2 0x100 EXP DUP2 SLOAD DUP2 PUSH20 0xFFFFFFFFFFFFFFFFFFFFFFFFFFFFFFFFFFFFFFFF MUL NOT AND SWAP1 DUP4 PUSH20 0xFFFFFFFFFFFFFFFFFFFFFFFFFFFFFFFFFFFFFFFF AND MUL OR SWAP1 SSTORE POP SWAP2 PUSH1 0x20 ADD SWAP2 SWAP1 PUSH1 0x1 ADD SWAP1 PUSH2 0x6F9 JUMP JUMPDEST JUMPDEST POP SWAP1 POP PUSH2 0x75F SWAP2 SWAP1 PUSH2 0x763 JUMP JUMPDEST POP SWAP1 JUMP JUMPDEST JUMPDEST DUP1 DUP3 GT ISZERO PUSH2 0x77C JUMPI PUSH1 0x0 DUP2 PUSH1 0x0 SWAP1 SSTORE POP PUSH1 0x1 ADD PUSH2 0x764 JUMP JUMPDEST POP SWAP1 JUMP JUMPDEST PUSH1 0x0 DUP2 SWAP1 POP SWAP2 SWAP1 POP JUMP JUMPDEST PUSH2 0x793 DUP2 PUSH2 0x780 JUMP JUMPDEST DUP3 MSTORE POP POP JUMP JUMPDEST PUSH1 0x0 PUSH1 0x20 DUP3 ADD SWAP1 POP PUSH2 0x7AE PUSH1 0x0 DUP4 ADD DUP5 PUSH2 0x78A JUMP JUMPDEST SWAP3 SWAP2 POP POP JUMP JUMPDEST PUSH1 0x0 DUP1 REVERT JUMPDEST PUSH1 0x0 PUSH20 0xFFFFFFFFFFFFFFFFFFFFFFFFFFFFFFFFFFFFFFFF DUP3 AND SWAP1 POP SWAP2 SWAP1 POP JUMP JUMPDEST PUSH1 0x0 PUSH2 0x7E4 DUP3 PUSH2 0x7B9 JUMP JUMPDEST SWAP1 POP SWAP2 SWAP1 POP JUMP JUMPDEST PUSH2 0x7F4 DUP2 PUSH2 0x7D9 JUMP JUMPDEST DUP2 EQ PUSH2 0x7FF JUMPI PUSH1 0x0 DUP1 REVERT JUMPDEST POP JUMP JUMPDEST PUSH1 0x0 DUP2 CALLDATALOAD SWAP1 POP PUSH2 0x811 DUP2 PUSH2 0x7EB JUMP JUMPDEST SWAP3 SWAP2 POP POP JUMP JUMPDEST PUSH1 0x0 PUSH1 0x20 DUP3 DUP5 SUB SLT ISZERO PUSH2 0x82D JUMPI PUSH2 0x82C PUSH2 0x7B4 JUMP JUMPDEST JUMPDEST PUSH1 0x0 PUSH2 0x83B DUP5 DUP3 DUP6 ADD PUSH2 0x802 JUMP JUMPDEST SWAP2 POP POP SWAP3 SWAP2 POP POP JUMP JUMPDEST PUSH2 0x84D DUP2 PUSH2 0x7D9 JUMP JUMPDEST DUP3 MSTORE POP POP JUMP JUMPDEST PUSH1 0x0 PUSH1 0x20 DUP3 ADD SWAP1 POP PUSH2 0x868 PUSH1 0x0 DUP4 ADD DUP5 PUSH2 0x844 JUMP JUMPDEST SWAP3 SWAP2 POP POP JUMP JUMPDEST PUSH2 0x877 DUP2 PUSH2 0x780 JUMP JUMPDEST DUP2 EQ PUSH2 0x882 JUMPI PUSH1 0x0 DUP1 REVERT JUMPDEST POP JUMP JUMPDEST PUSH1 0x0 DUP2 CALLDATALOAD SWAP1 POP PUSH2 0x894 DUP2 PUSH2 0x86E JUMP JUMPDEST SWAP3 SWAP2 POP POP JUMP JUMPDEST PUSH1 0x0 PUSH1 0x20 DUP3 DUP5 SUB SLT ISZERO PUSH2 0x8B0 JUMPI PUSH2 0x8AF PUSH2 0x7B4 JUMP JUMPDEST JUMPDEST PUSH1 0x0 PUSH2 0x8BE DUP5 DUP3 DUP6 ADD PUSH2 0x885 JUMP JUMPDEST SWAP2 POP POP SWAP3 SWAP2 POP POP JUMP JUMPDEST PUSH1 0x0 DUP3 DUP3 MSTORE PUSH1 0x20 DUP3 ADD SWAP1 POP SWAP3 SWAP2 POP POP JUMP JUMPDEST PUSH32 0x4469646E27742073656E6420656E6F7567682045544800000000000000000000 PUSH1 0x0 DUP3 ADD MSTORE POP JUMP JUMPDEST PUSH1 0x0 PUSH2 0x90E PUSH1 0x16 DUP4 PUSH2 0x8C7 JUMP JUMPDEST SWAP2 POP PUSH2 0x919 DUP3 PUSH2 0x8D8 JUMP JUMPDEST PUSH1 0x20 DUP3 ADD SWAP1 POP SWAP2 SWAP1 POP JUMP JUMPDEST PUSH1 0x0 PUSH1 0x20 DUP3 ADD SWAP1 POP DUP2 DUP2 SUB PUSH1 0x0 DUP4 ADD MSTORE PUSH2 0x93D DUP2 PUSH2 0x901 JUMP JUMPDEST SWAP1 POP SWAP2 SWAP1 POP JUMP JUMPDEST PUSH32 0x4E487B7100000000000000000000000000000000000000000000000000000000 PUSH1 0x0 MSTORE PUSH1 0x11 PUSH1 0x4 MSTORE PUSH1 0x24 PUSH1 0x0 REVERT JUMPDEST PUSH1 0x0 PUSH2 0x97E DUP3 PUSH2 0x780 JUMP JUMPDEST SWAP2 POP PUSH2 0x989 DUP4 PUSH2 0x780 JUMP JUMPDEST SWAP3 POP DUP3 DUP3 ADD SWAP1 POP DUP1 DUP3 GT ISZERO PUSH2 0x9A1 JUMPI PUSH2 0x9A0 PUSH2 0x944 JUMP JUMPDEST JUMPDEST SWAP3 SWAP2 POP POP JUMP JUMPDEST PUSH32 0x53656E646572206973206E6F74206F776E657200000000000000000000000000 PUSH1 0x0 DUP3 ADD MSTORE POP JUMP JUMPDEST PUSH1 0x0 PUSH2 0x9DD PUSH1 0x13 DUP4 PUSH2 0x8C7 JUMP JUMPDEST SWAP2 POP PUSH2 0x9E8 DUP3 PUSH2 0x9A7 JUMP JUMPDEST PUSH1 0x20 DUP3 ADD SWAP1 POP SWAP2 SWAP1 POP JUMP JUMPDEST PUSH1 0x0 PUSH1 0x20 DUP3 ADD SWAP1 POP DUP2 DUP2 SUB PUSH1 0x0 DUP4 ADD MSTORE PUSH2 0xA0C DUP2 PUSH2 0x9D0 JUMP JUMPDEST SWAP1 POP SWAP2 SWAP1 POP JUMP JUMPDEST PUSH32 0x4E487B7100000000000000000000000000000000000000000000000000000000 PUSH1 0x0 MSTORE PUSH1 0x32 PUSH1 0x4 MSTORE PUSH1 0x24 PUSH1 0x0 REVERT JUMPDEST PUSH1 0x0 PUSH2 0xA4D DUP3 PUSH2 0x780 JUMP JUMPDEST SWAP2 POP PUSH32 0xFFFFFFFFFFFFFFFFFFFFFFFFFFFFFFFFFFFFFFFFFFFFFFFFFFFFFFFFFFFFFFFF DUP3 SUB PUSH2 0xA7F JUMPI PUSH2 0xA7E PUSH2 0x944 JUMP JUMPDEST JUMPDEST PUSH1 0x1 DUP3 ADD SWAP1 POP SWAP2 SWAP1 POP JUMP JUMPDEST PUSH32 0x4E487B7100000000000000000000000000000000000000000000000000000000 PUSH1 0x0 MSTORE PUSH1 0x41 PUSH1 0x4 MSTORE PUSH1 0x24 PUSH1 0x0 REVERT JUMPDEST PUSH32 0x53656E64206661696C6564000000000000000000000000000000000000000000 PUSH1 0x0 DUP3 ADD MSTORE POP JUMP JUMPDEST PUSH1 0x0 PUSH2 0xAEF PUSH1 0xB DUP4 PUSH2 0x8C7 JUMP JUMPDEST SWAP2 POP PUSH2 0xAFA DUP3 PUSH2 0xAB9 JUMP JUMPDEST PUSH1 0x20 DUP3 ADD SWAP1 POP SWAP2 SWAP1 POP JUMP JUMPDEST PUSH1 0x0 PUSH1 0x20 DUP3 ADD SWAP1 POP DUP2 DUP2 SUB PUSH1 0x0 DUP4 ADD MSTORE PUSH2 0xB1E DUP2 PUSH2 0xAE2 JUMP JUMPDEST SWAP1 POP SWAP2 SWAP1 POP JUMP JUMPDEST PUSH1 0x0 DUP2 SWAP1 POP SWAP3 SWAP2 POP POP JUMP JUMPDEST POP JUMP JUMPDEST PUSH1 0x0 PUSH2 0xB40 PUSH1 0x0 DUP4 PUSH2 0xB25 JUMP JUMPDEST SWAP2 POP PUSH2 0xB4B DUP3 PUSH2 0xB30 JUMP JUMPDEST PUSH1 0x0 DUP3 ADD SWAP1 POP SWAP2 SWAP1 POP JUMP JUMPDEST PUSH1 0x0 PUSH2 0xB61 DUP3 PUSH2 0xB33 JUMP JUMPDEST SWAP2 POP DUP2 SWAP1 POP SWAP2 SWAP1 POP JUMP JUMPDEST PUSH32 0x63616C6C206661696C6564000000000000000000000000000000000000000000 PUSH1 0x0 DUP3 ADD MSTORE POP JUMP JUMPDEST PUSH1 0x0 PUSH2 0xBA1 PUSH1 0xB DUP4 PUSH2 0x8C7 JUMP JUMPDEST SWAP2 POP PUSH2 0xBAC DUP3 PUSH2 0xB6B JUMP JUMPDEST PUSH1 0x20 DUP3 ADD SWAP1 POP SWAP2 SWAP1 POP JUMP JUMPDEST PUSH1 0x0 PUSH1 0x20 DUP3 ADD SWAP1 POP DUP2 DUP2 SUB PUSH1 0x0 DUP4 ADD MSTORE PUSH2 0xBD0 DUP2 PUSH2 0xB94 JUMP JUMPDEST SWAP1 POP SWAP2 SWAP1 POP JUMP JUMPDEST PUSH1 0x0 PUSH2 0xBE2 DUP3 PUSH2 0x780 JUMP JUMPDEST SWAP2 POP PUSH2 0xBED DUP4 PUSH2 0x780 JUMP JUMPDEST SWAP3 POP DUP3 DUP3 MUL PUSH2 0xBFB DUP2 PUSH2 0x780 JUMP JUMPDEST SWAP2 POP DUP3 DUP3 DIV DUP5 EQ DUP4 ISZERO OR PUSH2 0xC12 JUMPI PUSH2 0xC11 PUSH2 0x944 JUMP JUMPDEST JUMPDEST POP SWAP3 SWAP2 POP POP JUMP JUMPDEST PUSH32 0x4E487B7100000000000000000000000000000000000000000000000000000000 PUSH1 0x0 MSTORE PUSH1 0x12 PUSH1 0x4 MSTORE PUSH1 0x24 PUSH1 0x0 REVERT JUMPDEST PUSH1 0x0 PUSH2 0xC53 DUP3 PUSH2 0x780 JUMP JUMPDEST SWAP2 POP PUSH2 0xC5E DUP4 PUSH2 0x780 JUMP JUMPDEST SWAP3 POP DUP3 PUSH2 0xC6E JUMPI PUSH2 0xC6D PUSH2 0xC19 JUMP JUMPDEST JUMPDEST DUP3 DUP3 DIV SWAP1 POP SWAP3 SWAP2 POP POP JUMP JUMPDEST PUSH1 0x0 PUSH10 0xFFFFFFFFFFFFFFFFFFFF DUP3 AND SWAP1 POP SWAP2 SWAP1 POP JUMP JUMPDEST PUSH2 0xC98 DUP2 PUSH2 0xC79 JUMP JUMPDEST DUP2 EQ PUSH2 0xCA3 JUMPI PUSH1 0x0 DUP1 REVERT JUMPDEST POP JUMP JUMPDEST PUSH1 0x0 DUP2 MLOAD SWAP1 POP PUSH2 0xCB5 DUP2 PUSH2 0xC8F JUMP JUMPDEST SWAP3 SWAP2 POP POP JUMP JUMPDEST PUSH1 0x0 DUP2 SWAP1 POP SWAP2 SWAP1 POP JUMP JUMPDEST PUSH2 0xCCE DUP2 PUSH2 0xCBB JUMP JUMPDEST DUP2 EQ PUSH2 0xCD9 JUMPI PUSH1 0x0 DUP1 REVERT JUMPDEST POP JUMP JUMPDEST PUSH1 0x0 DUP2 MLOAD SWAP1 POP PUSH2 0xCEB DUP2 PUSH2 0xCC5 JUMP JUMPDEST SWAP3 SWAP2 POP POP JUMP JUMPDEST PUSH1 0x0 DUP2 MLOAD SWAP1 POP PUSH2 0xD00 DUP2 PUSH2 0x86E JUMP JUMPDEST SWAP3 SWAP2 POP POP JUMP JUMPDEST PUSH1 0x0 DUP1 PUSH1 0x0 DUP1 PUSH1 0x0 PUSH1 0xA0 DUP7 DUP9 SUB SLT ISZERO PUSH2 0xD22 JUMPI PUSH2 0xD21 PUSH2 0x7B4 JUMP JUMPDEST JUMPDEST PUSH1 0x0 PUSH2 0xD30 DUP9 DUP3 DUP10 ADD PUSH2 0xCA6 JUMP JUMPDEST SWAP6 POP POP PUSH1 0x20 PUSH2 0xD41 DUP9 DUP3 DUP10 ADD PUSH2 0xCDC JUMP JUMPDEST SWAP5 POP POP PUSH1 0x40 PUSH2 0xD52 DUP9 DUP3 DUP10 ADD PUSH2 0xCF1 JUMP JUMPDEST SWAP4 POP POP PUSH1 0x60 PUSH2 0xD63 DUP9 DUP3 DUP10 ADD PUSH2 0xCF1 JUMP JUMPDEST SWAP3 POP POP PUSH1 0x80 PUSH2 0xD74 DUP9 DUP3 DUP10 ADD PUSH2 0xCA6 JUMP JUMPDEST SWAP2 POP POP SWAP3 SWAP6 POP SWAP3 SWAP6 SWAP1 SWAP4 POP JUMP JUMPDEST PUSH1 0x0 PUSH2 0xD8C DUP3 PUSH2 0xCBB JUMP JUMPDEST SWAP2 POP PUSH2 0xD97 DUP4 PUSH2 0xCBB JUMP JUMPDEST SWAP3 POP DUP3 DUP3 MUL PUSH2 0xDA5 DUP2 PUSH2 0xCBB JUMP JUMPDEST SWAP2 POP PUSH32 0x8000000000000000000000000000000000000000000000000000000000000000 DUP5 EQ PUSH1 0x0 DUP5 SLT AND ISZERO PUSH2 0xDDD JUMPI PUSH2 0xDDC PUSH2 0x944 JUMP JUMPDEST JUMPDEST DUP3 DUP3 SDIV DUP5 EQ DUP4 ISZERO OR PUSH2 0xDF2 JUMPI PUSH2 0xDF1 PUSH2 0x944 JUMP JUMPDEST JUMPDEST POP SWAP3 SWAP2 POP POP JUMP INVALID LOG2 PUSH5 0x6970667358 0x22 SLT KECCAK256 PUSH29 0x3E1EBAA77FCF8F69742775427E12A28E02AB4ACC3FD4A643DBFAF9851E SWAP5 PC PUSH5 0x736F6C6343 STOP ADDMOD SGT STOP CALLER "
				},
				"gasEstimates": {
					"creation": {
						"codeDepositCost": "726200",
						"executionCost": "47132",
						"totalCost": "773332"
					},
					"external": {
						"addressToAmountFunded(address)": "2836",
						"fund()": "infinite",
						"funders(uint256)": "5044",
						"minimumUSD()": "2407",
						"owner()": "2558",
						"withdraw()": "infinite"
					}
				},
				"methodIdentifiers": {
					"addressToAmountFunded(address)": "3e47d6f3",
					"fund()": "b60d4288",
					"funders(uint256)": "dc0d3dff",
					"minimumUSD()": "3430a88c",
					"owner()": "8da5cb5b",
					"withdraw()": "3ccfd60b"
				}
			},
			"storageLayout": {
				"storage": [
					{
						"astId": 55,
						"contract": "FundMe.sol:FundMe",
						"label": "minimumUSD",
						"offset": 0,
						"slot": "0",
						"type": "t_uint256"
					},
					{
						"astId": 58,
						"contract": "FundMe.sol:FundMe",
						"label": "funders",
						"offset": 0,
						"slot": "1",
						"type": "t_array(t_address)dyn_storage"
					},
					{
						"astId": 62,
						"contract": "FundMe.sol:FundMe",
						"label": "addressToAmountFunded",
						"offset": 0,
						"slot": "2",
						"type": "t_mapping(t_address,t_uint256)"
					},
					{
						"astId": 64,
						"contract": "FundMe.sol:FundMe",
						"label": "owner",
						"offset": 0,
						"slot": "3",
						"type": "t_address"
					}
				],
				"types": {
					"t_address": {
						"encoding": "inplace",
						"label": "address",
						"numberOfBytes": "20"
					},
					"t_array(t_address)dyn_storage": {
						"base": "t_address",
						"encoding": "dynamic_array",
						"label": "address[]",
						"numberOfBytes": "32"
					},
					"t_mapping(t_address,t_uint256)": {
						"encoding": "mapping",
						"key": "t_address",
						"label": "mapping(address => uint256)",
						"numberOfBytes": "32",
						"value": "t_uint256"
					},
					"t_uint256": {
						"encoding": "inplace",
						"label": "uint256",
						"numberOfBytes": "32"
					}
				}
			},
			"userdoc": {
				"kind": "user",
				"methods": {},
				"version": 1
			}
		}
	}
}